{
  "_format": "hh-sol-artifact-1",
  "contractName": "FID3",
  "sourceName": "contracts/FID3.sol",
  "abi": [
    {
      "anonymous": false,
      "inputs": [
        {
          "indexed": false,
          "internalType": "address",
          "name": "",
          "type": "address"
        }
      ],
      "name": "AlreadyVoted",
      "type": "event"
    },
    {
      "anonymous": false,
      "inputs": [
        {
          "indexed": false,
          "internalType": "uint256",
          "name": "proposalId",
          "type": "uint256"
        }
      ],
      "name": "ProposalAdded",
      "type": "event"
    },
    {
      "anonymous": false,
      "inputs": [
        {
          "indexed": false,
          "internalType": "uint256",
          "name": "proposalId",
          "type": "uint256"
        }
      ],
      "name": "ProposalPending",
      "type": "event"
    },
    {
      "anonymous": false,
      "inputs": [
        {
          "indexed": false,
          "internalType": "uint256",
          "name": "proposalId",
          "type": "uint256"
        }
      ],
      "name": "ProposalSucceeded",
      "type": "event"
    },
    {
      "inputs": [
        {
          "internalType": "address",
          "name": "",
          "type": "address"
        }
      ],
      "name": "AddressToFaceid",
      "outputs": [
        {
          "internalType": "bytes32",
          "name": "",
          "type": "bytes32"
        }
      ],
      "stateMutability": "view",
      "type": "function"
    },
    {
      "inputs": [
        {
          "internalType": "address",
          "name": "_addr",
          "type": "address"
        }
      ],
      "name": "getAddressToFaceid",
      "outputs": [
        {
          "internalType": "bytes32",
          "name": "",
          "type": "bytes32"
        }
      ],
      "stateMutability": "view",
      "type": "function"
    },
    {
      "inputs": [],
      "name": "getAllProposals",
      "outputs": [
        {
          "components": [
            {
              "internalType": "bool",
              "name": "succeeded",
              "type": "bool"
            },
            {
              "internalType": "string",
              "name": "name",
              "type": "string"
            },
            {
              "internalType": "string",
              "name": "description",
              "type": "string"
            },
            {
              "internalType": "uint256",
              "name": "againstVotes",
              "type": "uint256"
            },
            {
              "internalType": "uint256",
              "name": "forVotes",
              "type": "uint256"
            }
          ],
          "internalType": "struct FID3.Proposal[]",
          "name": "",
          "type": "tuple[]"
        }
      ],
      "stateMutability": "view",
      "type": "function"
    },
    {
      "inputs": [
        {
          "internalType": "uint256",
          "name": "",
          "type": "uint256"
        }
      ],
      "name": "proposals",
      "outputs": [
        {
          "internalType": "bool",
          "name": "succeeded",
          "type": "bool"
        },
        {
          "internalType": "string",
          "name": "name",
          "type": "string"
        },
        {
          "internalType": "string",
          "name": "description",
          "type": "string"
        },
        {
          "internalType": "uint256",
          "name": "againstVotes",
          "type": "uint256"
        },
        {
          "internalType": "uint256",
          "name": "forVotes",
          "type": "uint256"
        }
      ],
      "stateMutability": "view",
      "type": "function"
    },
    {
      "inputs": [
        {
          "internalType": "string",
          "name": "_name",
          "type": "string"
        },
        {
          "internalType": "string",
          "name": "_description",
          "type": "string"
        }
      ],
      "name": "propose",
      "outputs": [
        {
          "internalType": "uint256",
          "name": "",
          "type": "uint256"
        }
      ],
      "stateMutability": "nonpayable",
      "type": "function"
    },
    {
      "inputs": [
        {
          "internalType": "address",
          "name": "_addr",
          "type": "address"
        },
        {
          "internalType": "bytes32",
          "name": "_faceid",
          "type": "bytes32"
        }
      ],
      "name": "setAddressToFaceid",
      "outputs": [],
      "stateMutability": "nonpayable",
      "type": "function"
    },
    {
      "inputs": [
        {
          "internalType": "uint256",
          "name": "proposalId",
          "type": "uint256"
        },
        {
          "internalType": "uint8",
          "name": "voteType",
          "type": "uint8"
        }
      ],
      "name": "vote",
      "outputs": [],
      "stateMutability": "nonpayable",
      "type": "function"
    }
  ],
  "bytecode": "0x60806040526000600455600060065534801561001a57600080fd5b506111cd8061002a6000396000f3fe608060405234801561001057600080fd5b506004361061007d5760003560e01c8063943e82161161005b578063943e821614610102578063bce0930b1461011e578063cceb68f51461014e578063d07e9ac21461016c5761007d565b8063013cf08b146100825780631c4afc57146100b6578063384ca96d146100e6575b600080fd5b61009c6004803603810190610097919061099d565b61019c565b6040516100ad959493929190610a8d565b60405180910390f35b6100d060048036038101906100cb9190610c23565b6102ef565b6040516100dd9190610c9b565b60405180910390f35b61010060048036038101906100fb9190610d4a565b6103ff565b005b61011c60048036038101906101179190610dc3565b6104ba565b005b61013860048036038101906101339190610e03565b61060b565b6040516101459190610e3f565b60405180910390f35b610156610623565b6040516101639190611001565b60405180910390f35b61018660048036038101906101819190610e03565b610836565b6040516101939190610e3f565b60405180910390f35b60036020528060005260406000206000915090508060000160009054906101000a900460ff16908060010180546101d290611052565b80601f01602080910402602001604051908101604052809291908181526020018280546101fe90611052565b801561024b5780601f106102205761010080835404028352916020019161024b565b820191906000526020600020905b81548152906001019060200180831161022e57829003601f168201915b50505050509080600201805461026090611052565b80601f016020809104026020016040519081016040528092919081815260200182805461028c90611052565b80156102d95780601f106102ae576101008083540402835291602001916102d9565b820191906000526020600020905b8154815290600101906020018083116102bc57829003601f168201915b5050505050908060030154908060040154905085565b6000600460008154610300906110b3565b91905081905550600060045490506040518060a001604052806000151581526020018581526020018481526020016000815260200160008152506003600083815260200190815260200160002060008201518160000160006101000a81548160ff021916908315150217905550602082015181600101908051906020019061038992919061087f565b5060408201518160020190805190602001906103a692919061087f565b5060608201518160030155608082015181600401559050507f3f802220982dbddc337f1811180e73513e775b18380401997927fd1454cfd0bd816040516103ed9190610c9b565b60405180910390a18091505092915050565b600015156007600083815260200190815260200160002060009054906101000a900460ff1615151461043057600080fd5b60016007600083815260200190815260200160002060006101000a81548160ff02191690831515021790555080600560008473ffffffffffffffffffffffffffffffffffffffff1673ffffffffffffffffffffffffffffffffffffffff168152602001908152602001600020819055506006600081546104af906110b3565b919050819055505050565b60006003600084815260200190815260200160002090506000803373ffffffffffffffffffffffffffffffffffffffff1673ffffffffffffffffffffffffffffffffffffffff16815260200190815260200160002060009054906101000a900460ff1661055c576040517f08c379a000000000000000000000000000000000000000000000000000000000815260040161055390611148565b60405180910390fd5b60008260ff1614156105875780600301600081548092919061057d906110b3565b91905055506105af565b60018260ff1614156105ae578060040160008154809291906105a8906110b3565b91905055505b5b60016000803373ffffffffffffffffffffffffffffffffffffffff1673ffffffffffffffffffffffffffffffffffffffff16815260200190815260200160002060006101000a81548160ff021916908315150217905550505050565b60056020528060005260406000206000915090505481565b6060600060045467ffffffffffffffff81111561064357610642610af8565b5b60405190808252806020026020018201604052801561067c57816020015b610669610905565b8152602001906001900390816106615790505b50905060005b60045481101561082e57600360008281526020019081526020016000206040518060a00160405290816000820160009054906101000a900460ff161515151581526020016001820180546106d590611052565b80601f016020809104026020016040519081016040528092919081815260200182805461070190611052565b801561074e5780601f106107235761010080835404028352916020019161074e565b820191906000526020600020905b81548152906001019060200180831161073157829003601f168201915b5050505050815260200160028201805461076790611052565b80601f016020809104026020016040519081016040528092919081815260200182805461079390611052565b80156107e05780601f106107b5576101008083540402835291602001916107e0565b820191906000526020600020905b8154815290600101906020018083116107c357829003601f168201915b50505050508152602001600382015481526020016004820154815250508282815181106108105761080f611168565b5b60200260200101819052508080610826906110b3565b915050610682565b508091505090565b6000600560008373ffffffffffffffffffffffffffffffffffffffff1673ffffffffffffffffffffffffffffffffffffffff168152602001908152602001600020549050919050565b82805461088b90611052565b90600052602060002090601f0160209004810192826108ad57600085556108f4565b82601f106108c657805160ff19168380011785556108f4565b828001600101855582156108f4579182015b828111156108f35782518255916020019190600101906108d8565b5b5090506109019190610936565b5090565b6040518060a00160405280600015158152602001606081526020016060815260200160008152602001600081525090565b5b8082111561094f576000816000905550600101610937565b5090565b6000604051905090565b600080fd5b600080fd5b6000819050919050565b61097a81610967565b811461098557600080fd5b50565b60008135905061099781610971565b92915050565b6000602082840312156109b3576109b261095d565b5b60006109c184828501610988565b91505092915050565b60008115159050919050565b6109df816109ca565b82525050565b600081519050919050565b600082825260208201905092915050565b60005b83811015610a1f578082015181840152602081019050610a04565b83811115610a2e576000848401525b50505050565b6000601f19601f8301169050919050565b6000610a50826109e5565b610a5a81856109f0565b9350610a6a818560208601610a01565b610a7381610a34565b840191505092915050565b610a8781610967565b82525050565b600060a082019050610aa260008301886109d6565b8181036020830152610ab48187610a45565b90508181036040830152610ac88186610a45565b9050610ad76060830185610a7e565b610ae46080830184610a7e565b9695505050505050565b600080fd5b600080fd5b7f4e487b7100000000000000000000000000000000000000000000000000000000600052604160045260246000fd5b610b3082610a34565b810181811067ffffffffffffffff82111715610b4f57610b4e610af8565b5b80604052505050565b6000610b62610953565b9050610b6e8282610b27565b919050565b600067ffffffffffffffff821115610b8e57610b8d610af8565b5b610b9782610a34565b9050602081019050919050565b82818337600083830152505050565b6000610bc6610bc184610b73565b610b58565b905082815260208101848484011115610be257610be1610af3565b5b610bed848285610ba4565b509392505050565b600082601f830112610c0a57610c09610aee565b5b8135610c1a848260208601610bb3565b91505092915050565b60008060408385031215610c3a57610c3961095d565b5b600083013567ffffffffffffffff811115610c5857610c57610962565b5b610c6485828601610bf5565b925050602083013567ffffffffffffffff811115610c8557610c84610962565b5b610c9185828601610bf5565b9150509250929050565b6000602082019050610cb06000830184610a7e565b92915050565b600073ffffffffffffffffffffffffffffffffffffffff82169050919050565b6000610ce182610cb6565b9050919050565b610cf181610cd6565b8114610cfc57600080fd5b50565b600081359050610d0e81610ce8565b92915050565b6000819050919050565b610d2781610d14565b8114610d3257600080fd5b50565b600081359050610d4481610d1e565b92915050565b60008060408385031215610d6157610d6061095d565b5b6000610d6f85828601610cff565b9250506020610d8085828601610d35565b9150509250929050565b600060ff82169050919050565b610da081610d8a565b8114610dab57600080fd5b50565b600081359050610dbd81610d97565b92915050565b60008060408385031215610dda57610dd961095d565b5b6000610de885828601610988565b9250506020610df985828601610dae565b9150509250929050565b600060208284031215610e1957610e1861095d565b5b6000610e2784828501610cff565b91505092915050565b610e3981610d14565b82525050565b6000602082019050610e546000830184610e30565b92915050565b600081519050919050565b600082825260208201905092915050565b6000819050602082019050919050565b610e8f816109ca565b82525050565b600082825260208201905092915050565b6000610eb1826109e5565b610ebb8185610e95565b9350610ecb818560208601610a01565b610ed481610a34565b840191505092915050565b610ee881610967565b82525050565b600060a083016000830151610f066000860182610e86565b5060208301518482036020860152610f1e8282610ea6565b91505060408301518482036040860152610f388282610ea6565b9150506060830151610f4d6060860182610edf565b506080830151610f606080860182610edf565b508091505092915050565b6000610f778383610eee565b905092915050565b6000602082019050919050565b6000610f9782610e5a565b610fa18185610e65565b935083602082028501610fb385610e76565b8060005b85811015610fef5784840389528151610fd08582610f6b565b9450610fdb83610f7f565b925060208a01995050600181019050610fb7565b50829750879550505050505092915050565b6000602082019050818103600083015261101b8184610f8c565b905092915050565b7f4e487b7100000000000000000000000000000000000000000000000000000000600052602260045260246000fd5b6000600282049050600182168061106a57607f821691505b6020821081141561107e5761107d611023565b5b50919050565b7f4e487b7100000000000000000000000000000000000000000000000000000000600052601160045260246000fd5b60006110be82610967565b91507fffffffffffffffffffffffffffffffffffffffffffffffffffffffffffffffff8214156110f1576110f0611084565b5b600182019050919050565b7f616c726561647920766f74656400000000000000000000000000000000000000600082015250565b6000611132600d836109f0565b915061113d826110fc565b602082019050919050565b6000602082019050818103600083015261116181611125565b9050919050565b7f4e487b7100000000000000000000000000000000000000000000000000000000600052603260045260246000fdfea264697066735822122070169535864647246d8c09e6e62e3fc5b5bfd39d6f581e4fe4836a9d1210d3ab64736f6c63430008090033",
  "linkReferences": {},
  "deployedLinkReferences": {}
}