{
  "_format": "hh-sol-artifact-1",
  "contractName": "FID2",
  "sourceName": "contracts/FID2.sol",
  "abi": [
    {
      "inputs": [
        {
          "internalType": "address",
          "name": "",
          "type": "address"
        }
      ],
      "name": "AddressToFaceid",
      "outputs": [
        {
          "internalType": "string",
          "name": "",
          "type": "string"
        }
      ],
      "stateMutability": "view",
      "type": "function"
    },
    {
      "inputs": [
        {
          "internalType": "address",
          "name": "_addr",
          "type": "address"
        }
      ],
      "name": "get",
      "outputs": [
        {
          "internalType": "string",
          "name": "",
          "type": "string"
        }
      ],
      "stateMutability": "view",
      "type": "function"
    },
    {
      "inputs": [
        {
          "internalType": "address",
          "name": "_addr",
          "type": "address"
        }
      ],
      "name": "remove",
      "outputs": [],
      "stateMutability": "nonpayable",
      "type": "function"
    },
    {
      "inputs": [
        {
          "internalType": "address",
          "name": "_addr",
          "type": "address"
        },
        {
          "internalType": "string",
          "name": "_i",
          "type": "string"
        }
      ],
      "name": "set",
      "outputs": [],
      "stateMutability": "nonpayable",
      "type": "function"
    },
    {
      "inputs": [],
      "name": "totalEntries",
      "outputs": [
        {
          "internalType": "uint256",
          "name": "",
          "type": "uint256"
        }
      ],
      "stateMutability": "view",
      "type": "function"
    }
  ],
  "bytecode": "0x6080604052600060015534801561001557600080fd5b50610893806100256000396000f3fe608060405234801561001057600080fd5b50600436106100575760003560e01c806329092d0e1461005c5780635a82d100146100785780637fef036e14610094578063bce0930b146100b2578063c2bc2efc146100e2575b600080fd5b610076600480360381019061007191906104ad565b610112565b005b610092600480360381019061008d9190610620565b610175565b005b61009c6101e2565b6040516100a99190610695565b60405180910390f35b6100cc60048036038101906100c791906104ad565b6101e8565b6040516100d99190610738565b60405180910390f35b6100fc60048036038101906100f791906104ad565b610288565b6040516101099190610738565b60405180910390f35b6000808273ffffffffffffffffffffffffffffffffffffffff1673ffffffffffffffffffffffffffffffffffffffff168152602001908152602001600020600061015c9190610358565b60016000815461016b90610789565b9190508190555050565b806000808473ffffffffffffffffffffffffffffffffffffffff1673ffffffffffffffffffffffffffffffffffffffff16815260200190815260200160002090805190602001906101c7929190610398565b506001600081546101d7906107b3565b919050819055505050565b60015481565b600060205280600052604060002060009150905080546102079061082b565b80601f01602080910402602001604051908101604052809291908181526020018280546102339061082b565b80156102805780601f1061025557610100808354040283529160200191610280565b820191906000526020600020905b81548152906001019060200180831161026357829003601f168201915b505050505081565b60606000808373ffffffffffffffffffffffffffffffffffffffff1673ffffffffffffffffffffffffffffffffffffffff16815260200190815260200160002080546102d39061082b565b80601f01602080910402602001604051908101604052809291908181526020018280546102ff9061082b565b801561034c5780601f106103215761010080835404028352916020019161034c565b820191906000526020600020905b81548152906001019060200180831161032f57829003601f168201915b50505050509050919050565b5080546103649061082b565b6000825580601f106103765750610395565b601f016020900490600052602060002090810190610394919061041e565b5b50565b8280546103a49061082b565b90600052602060002090601f0160209004810192826103c6576000855561040d565b82601f106103df57805160ff191683800117855561040d565b8280016001018555821561040d579182015b8281111561040c5782518255916020019190600101906103f1565b5b50905061041a919061041e565b5090565b5b8082111561043757600081600090555060010161041f565b5090565b6000604051905090565b600080fd5b600080fd5b600073ffffffffffffffffffffffffffffffffffffffff82169050919050565b600061047a8261044f565b9050919050565b61048a8161046f565b811461049557600080fd5b50565b6000813590506104a781610481565b92915050565b6000602082840312156104c3576104c2610445565b5b60006104d184828501610498565b91505092915050565b600080fd5b600080fd5b6000601f19601f8301169050919050565b7f4e487b7100000000000000000000000000000000000000000000000000000000600052604160045260246000fd5b61052d826104e4565b810181811067ffffffffffffffff8211171561054c5761054b6104f5565b5b80604052505050565b600061055f61043b565b905061056b8282610524565b919050565b600067ffffffffffffffff82111561058b5761058a6104f5565b5b610594826104e4565b9050602081019050919050565b82818337600083830152505050565b60006105c36105be84610570565b610555565b9050828152602081018484840111156105df576105de6104df565b5b6105ea8482856105a1565b509392505050565b600082601f830112610607576106066104da565b5b81356106178482602086016105b0565b91505092915050565b6000806040838503121561063757610636610445565b5b600061064585828601610498565b925050602083013567ffffffffffffffff8111156106665761066561044a565b5b610672858286016105f2565b9150509250929050565b6000819050919050565b61068f8161067c565b82525050565b60006020820190506106aa6000830184610686565b92915050565b600081519050919050565b600082825260208201905092915050565b60005b838110156106ea5780820151818401526020810190506106cf565b838111156106f9576000848401525b50505050565b600061070a826106b0565b61071481856106bb565b93506107248185602086016106cc565b61072d816104e4565b840191505092915050565b6000602082019050818103600083015261075281846106ff565b905092915050565b7f4e487b7100000000000000000000000000000000000000000000000000000000600052601160045260246000fd5b60006107948261067c565b915060008214156107a8576107a761075a565b5b600182039050919050565b60006107be8261067c565b91507fffffffffffffffffffffffffffffffffffffffffffffffffffffffffffffffff8214156107f1576107f061075a565b5b600182019050919050565b7f4e487b7100000000000000000000000000000000000000000000000000000000600052602260045260246000fd5b6000600282049050600182168061084357607f821691505b60208210811415610857576108566107fc565b5b5091905056fea264697066735822122036a84ce924cdc0c41d39bb145c665205024943b86c73a8f5401cc3e56dad664564736f6c63430008090033",
  "linkReferences": {},
  "deployedLinkReferences": {}
}