{
  "_format": "hh-sol-artifact-1",
  "contractName": "FID",
  "sourceName": "contracts/FID.sol",
  "abi": [
    {
      "anonymous": false,
      "inputs": [
        {
          "indexed": false,
          "internalType": "uint256",
          "name": "proposalId",
          "type": "uint256"
        }
      ],
      "name": "ProposalAdded",
      "type": "event"
    },
    {
      "inputs": [
        {
          "internalType": "address",
          "name": "",
          "type": "address"
        }
      ],
      "name": "AddressToFaceid",
      "outputs": [
        {
          "internalType": "bytes32",
          "name": "",
          "type": "bytes32"
        }
      ],
      "stateMutability": "view",
      "type": "function"
    },
    {
      "inputs": [
        {
          "internalType": "address",
          "name": "_addr",
          "type": "address"
        }
      ],
      "name": "getAddressToFaceid",
      "outputs": [
        {
          "internalType": "bytes32",
          "name": "",
          "type": "bytes32"
        }
      ],
      "stateMutability": "view",
      "type": "function"
    },
    {
      "inputs": [],
      "name": "getAllProposals",
      "outputs": [
        {
          "components": [
            {
              "internalType": "bool",
              "name": "succeeded",
              "type": "bool"
            },
            {
              "internalType": "string",
              "name": "description",
              "type": "string"
            }
          ],
          "internalType": "struct FID.Proposal[]",
          "name": "",
          "type": "tuple[]"
        }
      ],
      "stateMutability": "view",
      "type": "function"
    },
    {
      "inputs": [
        {
          "internalType": "bytes32",
          "name": "",
          "type": "bytes32"
        }
      ],
      "name": "proposalVotes",
      "outputs": [
        {
          "internalType": "uint256",
          "name": "againstVotes",
          "type": "uint256"
        },
        {
          "internalType": "uint256",
          "name": "forVotes",
          "type": "uint256"
        }
      ],
      "stateMutability": "view",
      "type": "function"
    },
    {
      "inputs": [
        {
          "internalType": "uint256",
          "name": "",
          "type": "uint256"
        }
      ],
      "name": "proposals",
      "outputs": [
        {
          "internalType": "bool",
          "name": "succeeded",
          "type": "bool"
        },
        {
          "internalType": "string",
          "name": "description",
          "type": "string"
        }
      ],
      "stateMutability": "view",
      "type": "function"
    },
    {
      "inputs": [
        {
          "internalType": "string",
          "name": "_description",
          "type": "string"
        }
      ],
      "name": "propose",
      "outputs": [
        {
          "internalType": "uint256",
          "name": "",
          "type": "uint256"
        }
      ],
      "stateMutability": "nonpayable",
      "type": "function"
    },
    {
      "inputs": [
        {
          "internalType": "address",
          "name": "_addr",
          "type": "address"
        },
        {
          "internalType": "bytes32",
          "name": "_i",
          "type": "bytes32"
        }
      ],
      "name": "setAddressToFaceid",
      "outputs": [],
      "stateMutability": "nonpayable",
      "type": "function"
    },
    {
      "inputs": [
        {
          "internalType": "bytes32",
          "name": "proposalId",
          "type": "bytes32"
        }
      ],
      "name": "state",
      "outputs": [
        {
          "internalType": "enum FID.ProposalState",
          "name": "",
          "type": "uint8"
        }
      ],
      "stateMutability": "view",
      "type": "function"
    },
    {
      "inputs": [
        {
          "internalType": "bytes32",
          "name": "proposalId",
          "type": "bytes32"
        },
        {
          "internalType": "uint8",
          "name": "voteType",
          "type": "uint8"
        }
      ],
      "name": "vote",
      "outputs": [],
      "stateMutability": "nonpayable",
      "type": "function"
    },
    {
      "stateMutability": "payable",
      "type": "receive"
    }
  ],
  "bytecode": "0x60806040526000600255600060045534801561001a57600080fd5b5061132e8061002a6000396000f3fe60806040526004361061008a5760003560e01c8063bce0930b11610059578063bce0930b14610177578063c9a28cb9146101b4578063cceb68f5146101dd578063d07e9ac214610208578063d14b85b91461024557610091565b8063013cf08b14610096578063384ca96d146100d457806361d585da146100fd578063aa98df391461013a57610091565b3661009157005b600080fd5b3480156100a257600080fd5b506100bd60048036038101906100b891906109d7565b610283565b6040516100cb929190610ab8565b60405180910390f35b3480156100e057600080fd5b506100fb60048036038101906100f69190610b7c565b61033c565b005b34801561010957600080fd5b50610124600480360381019061011f9190610bbc565b6103f7565b6040516101319190610c60565b60405180910390f35b34801561014657600080fd5b50610161600480360381019061015c9190610db0565b610467565b60405161016e9190610e08565b60405180910390f35b34801561018357600080fd5b5061019e60048036038101906101999190610e23565b610530565b6040516101ab9190610e5f565b60405180910390f35b3480156101c057600080fd5b506101db60048036038101906101d69190610eb3565b610548565b005b3480156101e957600080fd5b506101f26106f5565b6040516101ff919061104b565b60405180910390f35b34801561021457600080fd5b5061022f600480360381019061022a9190610e23565b610861565b60405161023c9190610e5f565b60405180910390f35b34801561025157600080fd5b5061026c60048036038101906102679190610bbc565b6108aa565b60405161027a92919061106d565b60405180910390f35b60006020528060005260406000206000915090508060000160009054906101000a900460ff16908060010180546102b9906110c5565b80601f01602080910402602001604051908101604052809291908181526020018280546102e5906110c5565b80156103325780601f1061030757610100808354040283529160200191610332565b820191906000526020600020905b81548152906001019060200180831161031557829003601f168201915b5050505050905082565b600015156005600083815260200190815260200160002060009054906101000a900460ff1615151461036d57600080fd5b60016005600083815260200190815260200160002060006101000a81548160ff02191690831515021790555080600360008473ffffffffffffffffffffffffffffffffffffffff1673ffffffffffffffffffffffffffffffffffffffff168152602001908152602001600020819055506004600081546103ec90611126565b919050819055505050565b600080600160008481526020019081526020016000209050600081600001548260010154610425919061116f565b905060006064603360045461043a91906111a3565b610444919061122c565b90508082111561045a5760019350505050610462565b600093505050505b919050565b600060026000815461047890611126565b919050819055506000600254905060405180604001604052806000151581526020018481525060008083815260200190815260200160002060008201518160000160006101000a81548160ff02191690831515021790555060208201518160010190805190602001906104ec9291906108ce565b509050507f3f802220982dbddc337f1811180e73513e775b18380401997927fd1454cfd0bd8160405161051f9190610e08565b60405180910390a180915050919050565b60036020528060005260406000206000915090505481565b6000600360003373ffffffffffffffffffffffffffffffffffffffff1673ffffffffffffffffffffffffffffffffffffffff16815260200190815260200160002054905060008082141561059b57600080fd5b60006001600086815260200190815260200160002090508060020160003373ffffffffffffffffffffffffffffffffffffffff1673ffffffffffffffffffffffffffffffffffffffff16815260200190815260200160002060009054906101000a900460ff1615610641576040517f08c379a0000000000000000000000000000000000000000000000000000000008152600401610638906112a9565b60405180910390fd5b60008460ff16141561066c5780600001600081548092919061066290611126565b9190505550610694565b60018460ff1614156106935780600101600081548092919061068d90611126565b91905055505b5b60018160020160003373ffffffffffffffffffffffffffffffffffffffff1673ffffffffffffffffffffffffffffffffffffffff16815260200190815260200160002060006101000a81548160ff0219169083151502179055505050505050565b6060600060025467ffffffffffffffff81111561071557610714610c85565b5b60405190808252806020026020018201604052801561074e57816020015b61073b610954565b8152602001906001900390816107335790505b50905060005b600254811015610859576000808281526020019081526020016000206040518060400160405290816000820160009054906101000a900460ff161515151581526020016001820180546107a6906110c5565b80601f01602080910402602001604051908101604052809291908181526020018280546107d2906110c5565b801561081f5780601f106107f45761010080835404028352916020019161081f565b820191906000526020600020905b81548152906001019060200180831161080257829003601f168201915b50505050508152505082828151811061083b5761083a6112c9565b5b6020026020010181905250808061085190611126565b915050610754565b508091505090565b6000600360008373ffffffffffffffffffffffffffffffffffffffff1673ffffffffffffffffffffffffffffffffffffffff168152602001908152602001600020549050919050565b60016020528060005260406000206000915090508060000154908060010154905082565b8280546108da906110c5565b90600052602060002090601f0160209004810192826108fc5760008555610943565b82601f1061091557805160ff1916838001178555610943565b82800160010185558215610943579182015b82811115610942578251825591602001919060010190610927565b5b5090506109509190610970565b5090565b6040518060400160405280600015158152602001606081525090565b5b80821115610989576000816000905550600101610971565b5090565b6000604051905090565b600080fd5b600080fd5b6000819050919050565b6109b4816109a1565b81146109bf57600080fd5b50565b6000813590506109d1816109ab565b92915050565b6000602082840312156109ed576109ec610997565b5b60006109fb848285016109c2565b91505092915050565b60008115159050919050565b610a1981610a04565b82525050565b600081519050919050565b600082825260208201905092915050565b60005b83811015610a59578082015181840152602081019050610a3e565b83811115610a68576000848401525b50505050565b6000601f19601f8301169050919050565b6000610a8a82610a1f565b610a948185610a2a565b9350610aa4818560208601610a3b565b610aad81610a6e565b840191505092915050565b6000604082019050610acd6000830185610a10565b8181036020830152610adf8184610a7f565b90509392505050565b600073ffffffffffffffffffffffffffffffffffffffff82169050919050565b6000610b1382610ae8565b9050919050565b610b2381610b08565b8114610b2e57600080fd5b50565b600081359050610b4081610b1a565b92915050565b6000819050919050565b610b5981610b46565b8114610b6457600080fd5b50565b600081359050610b7681610b50565b92915050565b60008060408385031215610b9357610b92610997565b5b6000610ba185828601610b31565b9250506020610bb285828601610b67565b9150509250929050565b600060208284031215610bd257610bd1610997565b5b6000610be084828501610b67565b91505092915050565b7f4e487b7100000000000000000000000000000000000000000000000000000000600052602160045260246000fd5b60028110610c2957610c28610be9565b5b50565b6000819050610c3a82610c18565b919050565b6000610c4a82610c2c565b9050919050565b610c5a81610c3f565b82525050565b6000602082019050610c756000830184610c51565b92915050565b600080fd5b600080fd5b7f4e487b7100000000000000000000000000000000000000000000000000000000600052604160045260246000fd5b610cbd82610a6e565b810181811067ffffffffffffffff82111715610cdc57610cdb610c85565b5b80604052505050565b6000610cef61098d565b9050610cfb8282610cb4565b919050565b600067ffffffffffffffff821115610d1b57610d1a610c85565b5b610d2482610a6e565b9050602081019050919050565b82818337600083830152505050565b6000610d53610d4e84610d00565b610ce5565b905082815260208101848484011115610d6f57610d6e610c80565b5b610d7a848285610d31565b509392505050565b600082601f830112610d9757610d96610c7b565b5b8135610da7848260208601610d40565b91505092915050565b600060208284031215610dc657610dc5610997565b5b600082013567ffffffffffffffff811115610de457610de361099c565b5b610df084828501610d82565b91505092915050565b610e02816109a1565b82525050565b6000602082019050610e1d6000830184610df9565b92915050565b600060208284031215610e3957610e38610997565b5b6000610e4784828501610b31565b91505092915050565b610e5981610b46565b82525050565b6000602082019050610e746000830184610e50565b92915050565b600060ff82169050919050565b610e9081610e7a565b8114610e9b57600080fd5b50565b600081359050610ead81610e87565b92915050565b60008060408385031215610eca57610ec9610997565b5b6000610ed885828601610b67565b9250506020610ee985828601610e9e565b9150509250929050565b600081519050919050565b600082825260208201905092915050565b6000819050602082019050919050565b610f2881610a04565b82525050565b600082825260208201905092915050565b6000610f4a82610a1f565b610f548185610f2e565b9350610f64818560208601610a3b565b610f6d81610a6e565b840191505092915050565b6000604083016000830151610f906000860182610f1f565b5060208301518482036020860152610fa88282610f3f565b9150508091505092915050565b6000610fc18383610f78565b905092915050565b6000602082019050919050565b6000610fe182610ef3565b610feb8185610efe565b935083602082028501610ffd85610f0f565b8060005b85811015611039578484038952815161101a8582610fb5565b945061102583610fc9565b925060208a01995050600181019050611001565b50829750879550505050505092915050565b600060208201905081810360008301526110658184610fd6565b905092915050565b60006040820190506110826000830185610df9565b61108f6020830184610df9565b9392505050565b7f4e487b7100000000000000000000000000000000000000000000000000000000600052602260045260246000fd5b600060028204905060018216806110dd57607f821691505b602082108114156110f1576110f0611096565b5b50919050565b7f4e487b7100000000000000000000000000000000000000000000000000000000600052601160045260246000fd5b6000611131826109a1565b91507fffffffffffffffffffffffffffffffffffffffffffffffffffffffffffffffff821415611164576111636110f7565b5b600182019050919050565b600061117a826109a1565b9150611185836109a1565b925082821015611198576111976110f7565b5b828203905092915050565b60006111ae826109a1565b91506111b9836109a1565b9250817fffffffffffffffffffffffffffffffffffffffffffffffffffffffffffffffff04831182151516156111f2576111f16110f7565b5b828202905092915050565b7f4e487b7100000000000000000000000000000000000000000000000000000000600052601260045260246000fd5b6000611237826109a1565b9150611242836109a1565b925082611252576112516111fd565b5b828204905092915050565b7f616c726561647920766f74656400000000000000000000000000000000000000600082015250565b6000611293600d83610a2a565b915061129e8261125d565b602082019050919050565b600060208201905081810360008301526112c281611286565b9050919050565b7f4e487b7100000000000000000000000000000000000000000000000000000000600052603260045260246000fdfea2646970667358221220871c9b700e06cf813d9858660f386f77cf969bffca4764dbe2f1ce83e26d07f064736f6c63430008090033",
  "linkReferences": {},
  "deployedLinkReferences": {}
}