{
  "_format": "hh-sol-artifact-1",
  "contractName": "FID",
  "sourceName": "contracts/FID.sol",
  "abi": [
    {
      "anonymous": false,
      "inputs": [
        {
          "indexed": false,
          "internalType": "address",
          "name": "msgSender",
          "type": "address"
        }
      ],
      "name": "AlreadyVoted",
      "type": "event"
    },
    {
      "anonymous": false,
      "inputs": [
        {
          "indexed": false,
          "internalType": "uint256",
          "name": "proposalId",
          "type": "uint256"
        }
      ],
      "name": "ProposalAdded",
      "type": "event"
    },
    {
      "anonymous": false,
      "inputs": [
        {
          "indexed": false,
          "internalType": "uint256",
          "name": "proposalId",
          "type": "uint256"
        }
      ],
      "name": "ProposalPending",
      "type": "event"
    },
    {
      "anonymous": false,
      "inputs": [
        {
          "indexed": false,
          "internalType": "uint256",
          "name": "proposalId",
          "type": "uint256"
        }
      ],
      "name": "ProposalSucceeded",
      "type": "event"
    },
    {
      "inputs": [
        {
          "internalType": "address",
          "name": "",
          "type": "address"
        }
      ],
      "name": "AddressToFaceid",
      "outputs": [
        {
          "internalType": "bytes32",
          "name": "",
          "type": "bytes32"
        }
      ],
      "stateMutability": "view",
      "type": "function"
    },
    {
      "inputs": [],
      "name": "fetchProposals",
      "outputs": [
        {
          "components": [
            {
              "internalType": "uint256",
              "name": "proposalId",
              "type": "uint256"
            },
            {
              "internalType": "bool",
              "name": "succeeded",
              "type": "bool"
            },
            {
              "internalType": "string",
              "name": "name",
              "type": "string"
            },
            {
              "internalType": "string",
              "name": "description",
              "type": "string"
            },
            {
              "internalType": "uint256",
              "name": "againstVotes",
              "type": "uint256"
            },
            {
              "internalType": "uint256",
              "name": "forVotes",
              "type": "uint256"
            }
          ],
          "internalType": "struct FID.Proposal[]",
          "name": "",
          "type": "tuple[]"
        }
      ],
      "stateMutability": "view",
      "type": "function"
    },
    {
      "inputs": [
        {
          "internalType": "address",
          "name": "_addr",
          "type": "address"
        }
      ],
      "name": "getAddressToFaceid",
      "outputs": [
        {
          "internalType": "bytes32",
          "name": "",
          "type": "bytes32"
        }
      ],
      "stateMutability": "view",
      "type": "function"
    },
    {
      "inputs": [
        {
          "internalType": "address",
          "name": "_voterAddress",
          "type": "address"
        },
        {
          "internalType": "uint256",
          "name": "_voteId",
          "type": "uint256"
        }
      ],
      "name": "getHasVotedAgainstProposal",
      "outputs": [
        {
          "internalType": "bool",
          "name": "",
          "type": "bool"
        }
      ],
      "stateMutability": "view",
      "type": "function"
    },
    {
      "inputs": [
        {
          "internalType": "address",
          "name": "_voterAddress",
          "type": "address"
        },
        {
          "internalType": "uint256",
          "name": "_voteId",
          "type": "uint256"
        }
      ],
      "name": "getHasVotedForProposal",
      "outputs": [
        {
          "internalType": "bool",
          "name": "",
          "type": "bool"
        }
      ],
      "stateMutability": "view",
      "type": "function"
    },
    {
      "inputs": [
        {
          "internalType": "uint256",
          "name": "id",
          "type": "uint256"
        }
      ],
      "name": "getProposalById",
      "outputs": [
        {
          "components": [
            {
              "internalType": "uint256",
              "name": "proposalId",
              "type": "uint256"
            },
            {
              "internalType": "bool",
              "name": "succeeded",
              "type": "bool"
            },
            {
              "internalType": "string",
              "name": "name",
              "type": "string"
            },
            {
              "internalType": "string",
              "name": "description",
              "type": "string"
            },
            {
              "internalType": "uint256",
              "name": "againstVotes",
              "type": "uint256"
            },
            {
              "internalType": "uint256",
              "name": "forVotes",
              "type": "uint256"
            }
          ],
          "internalType": "struct FID.Proposal",
          "name": "",
          "type": "tuple"
        }
      ],
      "stateMutability": "view",
      "type": "function"
    },
    {
      "inputs": [
        {
          "internalType": "uint256",
          "name": "",
          "type": "uint256"
        }
      ],
      "name": "proposals",
      "outputs": [
        {
          "internalType": "uint256",
          "name": "proposalId",
          "type": "uint256"
        },
        {
          "internalType": "bool",
          "name": "succeeded",
          "type": "bool"
        },
        {
          "internalType": "string",
          "name": "name",
          "type": "string"
        },
        {
          "internalType": "string",
          "name": "description",
          "type": "string"
        },
        {
          "internalType": "uint256",
          "name": "againstVotes",
          "type": "uint256"
        },
        {
          "internalType": "uint256",
          "name": "forVotes",
          "type": "uint256"
        }
      ],
      "stateMutability": "view",
      "type": "function"
    },
    {
      "inputs": [
        {
          "internalType": "string",
          "name": "_name",
          "type": "string"
        },
        {
          "internalType": "string",
          "name": "_description",
          "type": "string"
        }
      ],
      "name": "propose",
      "outputs": [
        {
          "internalType": "uint256",
          "name": "",
          "type": "uint256"
        }
      ],
      "stateMutability": "nonpayable",
      "type": "function"
    },
    {
      "inputs": [
        {
          "internalType": "address",
          "name": "_addr",
          "type": "address"
        },
        {
          "internalType": "bytes32",
          "name": "_faceid",
          "type": "bytes32"
        }
      ],
      "name": "setAddressToFaceid",
      "outputs": [],
      "stateMutability": "nonpayable",
      "type": "function"
    },
    {
      "inputs": [
        {
          "internalType": "uint256",
          "name": "proposalId",
          "type": "uint256"
        },
        {
          "internalType": "uint8",
          "name": "voteType",
          "type": "uint8"
        }
      ],
      "name": "vote",
      "outputs": [],
      "stateMutability": "nonpayable",
      "type": "function"
    }
  ],
  "bytecode": "0x60806040526000600555600060075534801561001a57600080fd5b50611a758061002a6000396000f3fe608060405234801561001057600080fd5b506004361061009e5760003560e01c8063943e821611610066578063943e82161461017257806399d81cf01461018e578063bce0930b146101be578063d07e9ac2146101ee578063e6ee7cd21461021e5761009e565b8063013cf08b146100a35780631c4afc57146100d85780633656de2114610108578063384ca96d146101385780637e320d2f14610154575b600080fd5b6100bd60048036038101906100b8919061102b565b61024e565b6040516100cf9695949392919061111b565b60405180910390f35b6100f260048036038101906100ed91906112bf565b6103a7565b6040516100ff9190611337565b60405180910390f35b610122600480360381019061011d919061102b565b6104c2565b60405161012f919061144a565b60405180910390f35b610152600480360381019061014d9190611500565b61064c565b005b61015c610707565b6040516101699190611692565b60405180910390f35b61018c600480360381019061018791906116ed565b610958565b005b6101a860048036038101906101a3919061172d565b610db1565b6040516101b5919061176d565b60405180910390f35b6101d860048036038101906101d39190611788565b610e19565b6040516101e591906117c4565b60405180910390f35b61020860048036038101906102039190611788565b610e31565b60405161021591906117c4565b60405180910390f35b6102386004803603810190610233919061172d565b610e7a565b604051610245919061176d565b60405180910390f35b60046020528060005260406000206000915090508060000154908060010160009054906101000a900460ff169080600201805461028a9061180e565b80601f01602080910402602001604051908101604052809291908181526020018280546102b69061180e565b80156103035780601f106102d857610100808354040283529160200191610303565b820191906000526020600020905b8154815290600101906020018083116102e657829003601f168201915b5050505050908060030180546103189061180e565b80601f01602080910402602001604051908101604052809291908181526020018280546103449061180e565b80156103915780601f1061036657610100808354040283529160200191610391565b820191906000526020600020905b81548152906001019060200180831161037457829003601f168201915b5050505050908060040154908060050154905086565b60006103b36000610ee2565b60006103bf6000610ef8565b90506040518060c00160405280828152602001600015158152602001858152602001848152602001600081526020016000815250600460008381526020019081526020016000206000820151816000015560208201518160010160006101000a81548160ff021916908315150217905550604082015181600201908051906020019061044c929190610f06565b506060820151816003019080519060200190610469929190610f06565b506080820151816004015560a082015181600501559050507f3f802220982dbddc337f1811180e73513e775b18380401997927fd1454cfd0bd816040516104b09190611337565b60405180910390a18091505092915050565b6104ca610f8c565b600460008381526020019081526020016000206040518060c0016040529081600082015481526020016001820160009054906101000a900460ff1615151515815260200160028201805461051d9061180e565b80601f01602080910402602001604051908101604052809291908181526020018280546105499061180e565b80156105965780601f1061056b57610100808354040283529160200191610596565b820191906000526020600020905b81548152906001019060200180831161057957829003601f168201915b505050505081526020016003820180546105af9061180e565b80601f01602080910402602001604051908101604052809291908181526020018280546105db9061180e565b80156106285780601f106105fd57610100808354040283529160200191610628565b820191906000526020600020905b81548152906001019060200180831161060b57829003601f168201915b50505050508152602001600482015481526020016005820154815250509050919050565b600015156008600083815260200190815260200160002060009054906101000a900460ff1615151461067d57600080fd5b60016008600083815260200190815260200160002060006101000a81548160ff02191690831515021790555080600660008473ffffffffffffffffffffffffffffffffffffffff1673ffffffffffffffffffffffffffffffffffffffff168152602001908152602001600020819055506007600081546106fc9061186f565b919050819055505050565b606060006107156000610ef8565b90506000808267ffffffffffffffff81111561073457610733611194565b5b60405190808252806020026020018201604052801561076d57816020015b61075a610f8c565b8152602001906001900390816107525790505b50905060005b8381101561094e57600060018261078a91906118b8565b90506000600460008381526020019081526020016000209050806040518060c0016040529081600082015481526020016001820160009054906101000a900460ff161515151581526020016002820180546107e49061180e565b80601f01602080910402602001604051908101604052809291908181526020018280546108109061180e565b801561085d5780601f106108325761010080835404028352916020019161085d565b820191906000526020600020905b81548152906001019060200180831161084057829003601f168201915b505050505081526020016003820180546108769061180e565b80601f01602080910402602001604051908101604052809291908181526020018280546108a29061180e565b80156108ef5780601f106108c4576101008083540402835291602001916108ef565b820191906000526020600020905b8154815290600101906020018083116108d257829003601f168201915b505050505081526020016004820154815260200160058201548152505084868151811061091f5761091e61190e565b5b602002602001018190525060018561093791906118b8565b9450505080806109469061186f565b915050610773565b5080935050505090565b600060046000848152602001908152602001600020905060008260ff161415610b8f57600360003373ffffffffffffffffffffffffffffffffffffffff1673ffffffffffffffffffffffffffffffffffffffff168152602001908152602001600020600084815260200190815260200160002060009054906101000a900460ff1615610a19576040517f08c379a0000000000000000000000000000000000000000000000000000000008152600401610a1090611989565b60405180910390fd5b60011515600260003373ffffffffffffffffffffffffffffffffffffffff1673ffffffffffffffffffffffffffffffffffffffff168152602001908152602001600020600085815260200190815260200160002060009054906101000a900460ff1615151415610a9e57806005016000815480929190610a98906119a9565b91905055505b806004016000815480929190610ab39061186f565b91905055506001600360003373ffffffffffffffffffffffffffffffffffffffff1673ffffffffffffffffffffffffffffffffffffffff168152602001908152602001600020600085815260200190815260200160002060006101000a81548160ff0219169083151502179055506000600260003373ffffffffffffffffffffffffffffffffffffffff1673ffffffffffffffffffffffffffffffffffffffff168152602001908152602001600020600085815260200190815260200160002060006101000a81548160ff021916908315150217905550610dac565b60018260ff161415610dab57600260003373ffffffffffffffffffffffffffffffffffffffff1673ffffffffffffffffffffffffffffffffffffffff168152602001908152602001600020600084815260200190815260200160002060009054906101000a900460ff1615610c39576040517f08c379a0000000000000000000000000000000000000000000000000000000008152600401610c3090611a1f565b60405180910390fd5b60011515600360003373ffffffffffffffffffffffffffffffffffffffff1673ffffffffffffffffffffffffffffffffffffffff168152602001908152602001600020600085815260200190815260200160002060009054906101000a900460ff1615151415610cbe57806004016000815480929190610cb8906119a9565b91905055505b806005016000815480929190610cd39061186f565b91905055506001600260003373ffffffffffffffffffffffffffffffffffffffff1673ffffffffffffffffffffffffffffffffffffffff168152602001908152602001600020600085815260200190815260200160002060006101000a81548160ff0219169083151502179055506000600360003373ffffffffffffffffffffffffffffffffffffffff1673ffffffffffffffffffffffffffffffffffffffff168152602001908152602001600020600085815260200190815260200160002060006101000a81548160ff0219169083151502179055505b5b505050565b6000600260008473ffffffffffffffffffffffffffffffffffffffff1673ffffffffffffffffffffffffffffffffffffffff168152602001908152602001600020600083815260200190815260200160002060009054906101000a900460ff16905092915050565b60066020528060005260406000206000915090505481565b6000600660008373ffffffffffffffffffffffffffffffffffffffff1673ffffffffffffffffffffffffffffffffffffffff168152602001908152602001600020549050919050565b6000600360008473ffffffffffffffffffffffffffffffffffffffff1673ffffffffffffffffffffffffffffffffffffffff168152602001908152602001600020600083815260200190815260200160002060009054906101000a900460ff16905092915050565b6001816000016000828254019250508190555050565b600081600001549050919050565b828054610f129061180e565b90600052602060002090601f016020900481019282610f345760008555610f7b565b82601f10610f4d57805160ff1916838001178555610f7b565b82800160010185558215610f7b579182015b82811115610f7a578251825591602001919060010190610f5f565b5b509050610f889190610fc4565b5090565b6040518060c0016040528060008152602001600015158152602001606081526020016060815260200160008152602001600081525090565b5b80821115610fdd576000816000905550600101610fc5565b5090565b6000604051905090565b600080fd5b600080fd5b6000819050919050565b61100881610ff5565b811461101357600080fd5b50565b60008135905061102581610fff565b92915050565b60006020828403121561104157611040610feb565b5b600061104f84828501611016565b91505092915050565b61106181610ff5565b82525050565b60008115159050919050565b61107c81611067565b82525050565b600081519050919050565b600082825260208201905092915050565b60005b838110156110bc5780820151818401526020810190506110a1565b838111156110cb576000848401525b50505050565b6000601f19601f8301169050919050565b60006110ed82611082565b6110f7818561108d565b935061110781856020860161109e565b611110816110d1565b840191505092915050565b600060c0820190506111306000830189611058565b61113d6020830188611073565b818103604083015261114f81876110e2565b9050818103606083015261116381866110e2565b90506111726080830185611058565b61117f60a0830184611058565b979650505050505050565b600080fd5b600080fd5b7f4e487b7100000000000000000000000000000000000000000000000000000000600052604160045260246000fd5b6111cc826110d1565b810181811067ffffffffffffffff821117156111eb576111ea611194565b5b80604052505050565b60006111fe610fe1565b905061120a82826111c3565b919050565b600067ffffffffffffffff82111561122a57611229611194565b5b611233826110d1565b9050602081019050919050565b82818337600083830152505050565b600061126261125d8461120f565b6111f4565b90508281526020810184848401111561127e5761127d61118f565b5b611289848285611240565b509392505050565b600082601f8301126112a6576112a561118a565b5b81356112b684826020860161124f565b91505092915050565b600080604083850312156112d6576112d5610feb565b5b600083013567ffffffffffffffff8111156112f4576112f3610ff0565b5b61130085828601611291565b925050602083013567ffffffffffffffff81111561132157611320610ff0565b5b61132d85828601611291565b9150509250929050565b600060208201905061134c6000830184611058565b92915050565b61135b81610ff5565b82525050565b61136a81611067565b82525050565b600082825260208201905092915050565b600061138c82611082565b6113968185611370565b93506113a681856020860161109e565b6113af816110d1565b840191505092915050565b600060c0830160008301516113d26000860182611352565b5060208301516113e56020860182611361565b50604083015184820360408601526113fd8282611381565b915050606083015184820360608601526114178282611381565b915050608083015161142c6080860182611352565b5060a083015161143f60a0860182611352565b508091505092915050565b6000602082019050818103600083015261146481846113ba565b905092915050565b600073ffffffffffffffffffffffffffffffffffffffff82169050919050565b60006114978261146c565b9050919050565b6114a78161148c565b81146114b257600080fd5b50565b6000813590506114c48161149e565b92915050565b6000819050919050565b6114dd816114ca565b81146114e857600080fd5b50565b6000813590506114fa816114d4565b92915050565b6000806040838503121561151757611516610feb565b5b6000611525858286016114b5565b9250506020611536858286016114eb565b9150509250929050565b600081519050919050565b600082825260208201905092915050565b6000819050602082019050919050565b600060c0830160008301516115846000860182611352565b5060208301516115976020860182611361565b50604083015184820360408601526115af8282611381565b915050606083015184820360608601526115c98282611381565b91505060808301516115de6080860182611352565b5060a08301516115f160a0860182611352565b508091505092915050565b6000611608838361156c565b905092915050565b6000602082019050919050565b600061162882611540565b611632818561154b565b9350836020820285016116448561155c565b8060005b85811015611680578484038952815161166185826115fc565b945061166c83611610565b925060208a01995050600181019050611648565b50829750879550505050505092915050565b600060208201905081810360008301526116ac818461161d565b905092915050565b600060ff82169050919050565b6116ca816116b4565b81146116d557600080fd5b50565b6000813590506116e7816116c1565b92915050565b6000806040838503121561170457611703610feb565b5b600061171285828601611016565b9250506020611723858286016116d8565b9150509250929050565b6000806040838503121561174457611743610feb565b5b6000611752858286016114b5565b925050602061176385828601611016565b9150509250929050565b60006020820190506117826000830184611073565b92915050565b60006020828403121561179e5761179d610feb565b5b60006117ac848285016114b5565b91505092915050565b6117be816114ca565b82525050565b60006020820190506117d960008301846117b5565b92915050565b7f4e487b7100000000000000000000000000000000000000000000000000000000600052602260045260246000fd5b6000600282049050600182168061182657607f821691505b6020821081141561183a576118396117df565b5b50919050565b7f4e487b7100000000000000000000000000000000000000000000000000000000600052601160045260246000fd5b600061187a82610ff5565b91507fffffffffffffffffffffffffffffffffffffffffffffffffffffffffffffffff8214156118ad576118ac611840565b5b600182019050919050565b60006118c382610ff5565b91506118ce83610ff5565b9250827fffffffffffffffffffffffffffffffffffffffffffffffffffffffffffffffff0382111561190357611902611840565b5b828201905092915050565b7f4e487b7100000000000000000000000000000000000000000000000000000000600052603260045260246000fd5b7f616c726561647920766f74656420616761696e73742070726f706f7365000000600082015250565b6000611973601d8361108d565b915061197e8261193d565b602082019050919050565b600060208201905081810360008301526119a281611966565b9050919050565b60006119b482610ff5565b915060008214156119c8576119c7611840565b5b600182039050919050565b7f616c726561647920766f74656420666f722070726f706f736500000000000000600082015250565b6000611a0960198361108d565b9150611a14826119d3565b602082019050919050565b60006020820190508181036000830152611a38816119fc565b905091905056fea2646970667358221220925d9df31bf990565b8ed44f96e344e513f9bbcb4f09f165f27109c9ad93749a64736f6c63430008090033",
  "linkReferences": {},
  "deployedLinkReferences": {}
}