{
  "_format": "hh-sol-artifact-1",
  "contractName": "FID",
  "sourceName": "contracts/FID.sol",
  "abi": [
    {
      "inputs": [
        {
          "internalType": "address",
          "name": "",
          "type": "address"
        }
      ],
      "name": "AddressToFaceid",
      "outputs": [
        {
          "internalType": "string",
          "name": "",
          "type": "string"
        }
      ],
      "stateMutability": "view",
      "type": "function"
    },
    {
      "inputs": [
        {
          "internalType": "address",
          "name": "_addr",
          "type": "address"
        }
      ],
      "name": "get",
      "outputs": [
        {
          "internalType": "string",
          "name": "",
          "type": "string"
        }
      ],
      "stateMutability": "view",
      "type": "function"
    },
    {
      "inputs": [
        {
          "internalType": "address",
          "name": "_addr",
          "type": "address"
        }
      ],
      "name": "remove",
      "outputs": [],
      "stateMutability": "nonpayable",
      "type": "function"
    },
    {
      "inputs": [
        {
          "internalType": "address",
          "name": "_addr",
          "type": "address"
        },
        {
          "internalType": "string",
          "name": "_i",
          "type": "string"
        }
      ],
      "name": "set",
      "outputs": [],
      "stateMutability": "nonpayable",
      "type": "function"
    }
  ],
  "bytecode": "0x608060405234801561001057600080fd5b50610762806100206000396000f3fe608060405234801561001057600080fd5b506004361061004c5760003560e01c806329092d0e146100515780635a82d1001461006d578063bce0930b14610089578063c2bc2efc146100b9575b600080fd5b61006b60048036038101906100669190610452565b6100e9565b005b610087600480360381019061008291906105c5565b610136565b005b6100a3600480360381019061009e9190610452565b61018d565b6040516100b091906106a9565b60405180910390f35b6100d360048036038101906100ce9190610452565b61022d565b6040516100e091906106a9565b60405180910390f35b6000808273ffffffffffffffffffffffffffffffffffffffff1673ffffffffffffffffffffffffffffffffffffffff168152602001908152602001600020600061013391906102fd565b50565b806000808473ffffffffffffffffffffffffffffffffffffffff1673ffffffffffffffffffffffffffffffffffffffff168152602001908152602001600020908051906020019061018892919061033d565b505050565b600060205280600052604060002060009150905080546101ac906106fa565b80601f01602080910402602001604051908101604052809291908181526020018280546101d8906106fa565b80156102255780601f106101fa57610100808354040283529160200191610225565b820191906000526020600020905b81548152906001019060200180831161020857829003601f168201915b505050505081565b60606000808373ffffffffffffffffffffffffffffffffffffffff1673ffffffffffffffffffffffffffffffffffffffff1681526020019081526020016000208054610278906106fa565b80601f01602080910402602001604051908101604052809291908181526020018280546102a4906106fa565b80156102f15780601f106102c6576101008083540402835291602001916102f1565b820191906000526020600020905b8154815290600101906020018083116102d457829003601f168201915b50505050509050919050565b508054610309906106fa565b6000825580601f1061031b575061033a565b601f01602090049060005260206000209081019061033991906103c3565b5b50565b828054610349906106fa565b90600052602060002090601f01602090048101928261036b57600085556103b2565b82601f1061038457805160ff19168380011785556103b2565b828001600101855582156103b2579182015b828111156103b1578251825591602001919060010190610396565b5b5090506103bf91906103c3565b5090565b5b808211156103dc5760008160009055506001016103c4565b5090565b6000604051905090565b600080fd5b600080fd5b600073ffffffffffffffffffffffffffffffffffffffff82169050919050565b600061041f826103f4565b9050919050565b61042f81610414565b811461043a57600080fd5b50565b60008135905061044c81610426565b92915050565b600060208284031215610468576104676103ea565b5b60006104768482850161043d565b91505092915050565b600080fd5b600080fd5b6000601f19601f8301169050919050565b7f4e487b7100000000000000000000000000000000000000000000000000000000600052604160045260246000fd5b6104d282610489565b810181811067ffffffffffffffff821117156104f1576104f061049a565b5b80604052505050565b60006105046103e0565b905061051082826104c9565b919050565b600067ffffffffffffffff8211156105305761052f61049a565b5b61053982610489565b9050602081019050919050565b82818337600083830152505050565b600061056861056384610515565b6104fa565b90508281526020810184848401111561058457610583610484565b5b61058f848285610546565b509392505050565b600082601f8301126105ac576105ab61047f565b5b81356105bc848260208601610555565b91505092915050565b600080604083850312156105dc576105db6103ea565b5b60006105ea8582860161043d565b925050602083013567ffffffffffffffff81111561060b5761060a6103ef565b5b61061785828601610597565b9150509250929050565b600081519050919050565b600082825260208201905092915050565b60005b8381101561065b578082015181840152602081019050610640565b8381111561066a576000848401525b50505050565b600061067b82610621565b610685818561062c565b935061069581856020860161063d565b61069e81610489565b840191505092915050565b600060208201905081810360008301526106c38184610670565b905092915050565b7f4e487b7100000000000000000000000000000000000000000000000000000000600052602260045260246000fd5b6000600282049050600182168061071257607f821691505b60208210811415610726576107256106cb565b5b5091905056fea264697066735822122093a418e61043ff717d2943360f64fc523c94b0699396a6bbaa31caf90f08438664736f6c63430008090033",
  "linkReferences": {},
  "deployedLinkReferences": {}
}