{
  "_format": "hh-sol-artifact-1",
  "contractName": "FID",
  "sourceName": "contracts/FID.sol",
  "abi": [
    {
      "anonymous": false,
      "inputs": [
        {
          "indexed": false,
          "internalType": "bytes32",
          "name": "proposalId",
          "type": "bytes32"
        }
      ],
      "name": "ProposalAdded",
      "type": "event"
    },
    {
      "inputs": [
        {
          "internalType": "address",
          "name": "",
          "type": "address"
        }
      ],
      "name": "AddressToFaceid",
      "outputs": [
        {
          "internalType": "bytes32",
          "name": "",
          "type": "bytes32"
        }
      ],
      "stateMutability": "view",
      "type": "function"
    },
    {
      "inputs": [
        {
          "internalType": "address",
          "name": "_addr",
          "type": "address"
        }
      ],
      "name": "getAddressToFaceid",
      "outputs": [
        {
          "internalType": "bytes32",
          "name": "",
          "type": "bytes32"
        }
      ],
      "stateMutability": "view",
      "type": "function"
    },
    {
      "inputs": [
        {
          "internalType": "bytes32",
          "name": "",
          "type": "bytes32"
        }
      ],
      "name": "proposalVotes",
      "outputs": [
        {
          "internalType": "uint256",
          "name": "againstVotes",
          "type": "uint256"
        },
        {
          "internalType": "uint256",
          "name": "forVotes",
          "type": "uint256"
        }
      ],
      "stateMutability": "view",
      "type": "function"
    },
    {
      "inputs": [
        {
          "internalType": "bytes32",
          "name": "",
          "type": "bytes32"
        }
      ],
      "name": "proposals",
      "outputs": [
        {
          "internalType": "bool",
          "name": "executed",
          "type": "bool"
        }
      ],
      "stateMutability": "view",
      "type": "function"
    },
    {
      "inputs": [
        {
          "internalType": "string",
          "name": "_description",
          "type": "string"
        }
      ],
      "name": "propose",
      "outputs": [
        {
          "internalType": "bytes32",
          "name": "",
          "type": "bytes32"
        }
      ],
      "stateMutability": "nonpayable",
      "type": "function"
    },
    {
      "inputs": [
        {
          "internalType": "address",
          "name": "_addr",
          "type": "address"
        },
        {
          "internalType": "bytes32",
          "name": "_i",
          "type": "bytes32"
        }
      ],
      "name": "setAddressToFaceid",
      "outputs": [],
      "stateMutability": "nonpayable",
      "type": "function"
    },
    {
      "inputs": [
        {
          "internalType": "bytes32",
          "name": "proposalId",
          "type": "bytes32"
        }
      ],
      "name": "state",
      "outputs": [
        {
          "internalType": "enum FID.ProposalState",
          "name": "",
          "type": "uint8"
        }
      ],
      "stateMutability": "view",
      "type": "function"
    },
    {
      "inputs": [
        {
          "internalType": "bytes32",
          "name": "proposalId",
          "type": "bytes32"
        },
        {
          "internalType": "uint8",
          "name": "voteType",
          "type": "uint8"
        }
      ],
      "name": "vote",
      "outputs": [],
      "stateMutability": "nonpayable",
      "type": "function"
    },
    {
      "stateMutability": "payable",
      "type": "receive"
    }
  ],
  "bytecode": "0x6080604052600060035534801561001557600080fd5b50610d0e806100256000396000f3fe60806040526004361061007f5760003560e01c8063bce0930b1161004e578063bce0930b1461016b578063c9a28cb9146101a8578063d07e9ac2146101d1578063d14b85b91461020e57610086565b806332ed5b121461008b578063384ca96d146100c857806361d585da146100f1578063aa98df391461012e57610086565b3661008657005b600080fd5b34801561009757600080fd5b506100b260048036038101906100ad9190610746565b61024c565b6040516100bf919061078e565b60405180910390f35b3480156100d457600080fd5b506100ef60048036038101906100ea9190610807565b610277565b005b3480156100fd57600080fd5b5061011860048036038101906101139190610746565b610332565b60405161012591906108be565b60405180910390f35b34801561013a57600080fd5b506101556004803603810190610150919061093e565b6103a2565b604051610162919061099a565b60405180910390f35b34801561017757600080fd5b50610192600480360381019061018d91906109b5565b6104a4565b60405161019f919061099a565b60405180910390f35b3480156101b457600080fd5b506101cf60048036038101906101ca9190610a1b565b6104bc565b005b3480156101dd57600080fd5b506101f860048036038101906101f391906109b5565b610669565b604051610205919061099a565b60405180910390f35b34801561021a57600080fd5b5061023560048036038101906102309190610746565b6106b2565b604051610243929190610a74565b60405180910390f35b60006020528060005260406000206000915090508060000160009054906101000a900460ff16905081565b600015156004600083815260200190815260200160002060009054906101000a900460ff161515146102a857600080fd5b60016004600083815260200190815260200160002060006101000a81548160ff02191690831515021790555080600260008473ffffffffffffffffffffffffffffffffffffffff1673ffffffffffffffffffffffffffffffffffffffff1681526020019081526020016000208190555060036000815461032790610acc565b919050819055505050565b6000806001600084815260200190815260200160002090506000816000015482600101546103609190610b15565b90506000606460336003546103759190610b49565b61037f9190610bd2565b905080821115610395576001935050505061039d565b600093505050505b919050565b600080600260003373ffffffffffffffffffffffffffffffffffffffff1673ffffffffffffffffffffffffffffffffffffffff1681526020019081526020016000205490506000808214156103f657600080fd5b6000610418868660405161040b929190610c42565b60405180910390206106d6565b905060405180602001604052806000151581525060008083815260200190815260200160002060008201518160000160006101000a81548160ff0219169083151502179055509050507f7b06b8256a1c2af3b6e3708cfedb6e43225986a2f920a401f0b70891c5d502df81604051610490919061099a565b60405180910390a180935050505092915050565b60026020528060005260406000206000915090505481565b6000600260003373ffffffffffffffffffffffffffffffffffffffff1673ffffffffffffffffffffffffffffffffffffffff16815260200190815260200160002054905060008082141561050f57600080fd5b60006001600086815260200190815260200160002090508060020160003373ffffffffffffffffffffffffffffffffffffffff1673ffffffffffffffffffffffffffffffffffffffff16815260200190815260200160002060009054906101000a900460ff16156105b5576040517f08c379a00000000000000000000000000000000000000000000000000000000081526004016105ac90610cb8565b60405180910390fd5b60008460ff1614156105e0578060000160008154809291906105d690610acc565b9190505550610608565b60018460ff1614156106075780600101600081548092919061060190610acc565b91905055505b5b60018160020160003373ffffffffffffffffffffffffffffffffffffffff1673ffffffffffffffffffffffffffffffffffffffff16815260200190815260200160002060006101000a81548160ff0219169083151502179055505050505050565b6000600260008373ffffffffffffffffffffffffffffffffffffffff1673ffffffffffffffffffffffffffffffffffffffff168152602001908152602001600020549050919050565b60016020528060005260406000206000915090508060000154908060010154905082565b6000816040516020016106e9919061099a565b604051602081830303815290604052805190602001209050919050565b600080fd5b600080fd5b6000819050919050565b61072381610710565b811461072e57600080fd5b50565b6000813590506107408161071a565b92915050565b60006020828403121561075c5761075b610706565b5b600061076a84828501610731565b91505092915050565b60008115159050919050565b61078881610773565b82525050565b60006020820190506107a3600083018461077f565b92915050565b600073ffffffffffffffffffffffffffffffffffffffff82169050919050565b60006107d4826107a9565b9050919050565b6107e4816107c9565b81146107ef57600080fd5b50565b600081359050610801816107db565b92915050565b6000806040838503121561081e5761081d610706565b5b600061082c858286016107f2565b925050602061083d85828601610731565b9150509250929050565b7f4e487b7100000000000000000000000000000000000000000000000000000000600052602160045260246000fd5b6002811061088757610886610847565b5b50565b600081905061089882610876565b919050565b60006108a88261088a565b9050919050565b6108b88161089d565b82525050565b60006020820190506108d360008301846108af565b92915050565b600080fd5b600080fd5b600080fd5b60008083601f8401126108fe576108fd6108d9565b5b8235905067ffffffffffffffff81111561091b5761091a6108de565b5b602083019150836001820283011115610937576109366108e3565b5b9250929050565b6000806020838503121561095557610954610706565b5b600083013567ffffffffffffffff8111156109735761097261070b565b5b61097f858286016108e8565b92509250509250929050565b61099481610710565b82525050565b60006020820190506109af600083018461098b565b92915050565b6000602082840312156109cb576109ca610706565b5b60006109d9848285016107f2565b91505092915050565b600060ff82169050919050565b6109f8816109e2565b8114610a0357600080fd5b50565b600081359050610a15816109ef565b92915050565b60008060408385031215610a3257610a31610706565b5b6000610a4085828601610731565b9250506020610a5185828601610a06565b9150509250929050565b6000819050919050565b610a6e81610a5b565b82525050565b6000604082019050610a896000830185610a65565b610a966020830184610a65565b9392505050565b7f4e487b7100000000000000000000000000000000000000000000000000000000600052601160045260246000fd5b6000610ad782610a5b565b91507fffffffffffffffffffffffffffffffffffffffffffffffffffffffffffffffff821415610b0a57610b09610a9d565b5b600182019050919050565b6000610b2082610a5b565b9150610b2b83610a5b565b925082821015610b3e57610b3d610a9d565b5b828203905092915050565b6000610b5482610a5b565b9150610b5f83610a5b565b9250817fffffffffffffffffffffffffffffffffffffffffffffffffffffffffffffffff0483118215151615610b9857610b97610a9d565b5b828202905092915050565b7f4e487b7100000000000000000000000000000000000000000000000000000000600052601260045260246000fd5b6000610bdd82610a5b565b9150610be883610a5b565b925082610bf857610bf7610ba3565b5b828204905092915050565b600081905092915050565b82818337600083830152505050565b6000610c298385610c03565b9350610c36838584610c0e565b82840190509392505050565b6000610c4f828486610c1d565b91508190509392505050565b600082825260208201905092915050565b7f616c726561647920766f74656400000000000000000000000000000000000000600082015250565b6000610ca2600d83610c5b565b9150610cad82610c6c565b602082019050919050565b60006020820190508181036000830152610cd181610c95565b905091905056fea2646970667358221220d67f96df57ae844bd64f7a71bef59d1885de70f0d5f60ec731d98323905badd064736f6c63430008090033",
  "linkReferences": {},
  "deployedLinkReferences": {}
}