{
  "_format": "hh-sol-artifact-1",
  "contractName": "FID",
  "sourceName": "contracts/FID.sol",
  "abi": [
    {
      "anonymous": false,
      "inputs": [
        {
          "indexed": false,
          "internalType": "address",
          "name": "msgSender",
          "type": "address"
        }
      ],
      "name": "AlreadyVoted",
      "type": "event"
    },
    {
      "anonymous": false,
      "inputs": [
        {
          "indexed": false,
          "internalType": "uint256",
          "name": "proposalId",
          "type": "uint256"
        }
      ],
      "name": "ProposalAdded",
      "type": "event"
    },
    {
      "anonymous": false,
      "inputs": [
        {
          "indexed": false,
          "internalType": "uint256",
          "name": "proposalId",
          "type": "uint256"
        }
      ],
      "name": "ProposalPending",
      "type": "event"
    },
    {
      "anonymous": false,
      "inputs": [
        {
          "indexed": false,
          "internalType": "uint256",
          "name": "proposalId",
          "type": "uint256"
        }
      ],
      "name": "ProposalSucceeded",
      "type": "event"
    },
    {
      "inputs": [
        {
          "internalType": "address",
          "name": "",
          "type": "address"
        }
      ],
      "name": "AddressToFaceid",
      "outputs": [
        {
          "internalType": "bytes32",
          "name": "",
          "type": "bytes32"
        }
      ],
      "stateMutability": "view",
      "type": "function"
    },
    {
      "inputs": [
        {
          "internalType": "address",
          "name": "_addr",
          "type": "address"
        }
      ],
      "name": "getAddressToFaceid",
      "outputs": [
        {
          "internalType": "bytes32",
          "name": "",
          "type": "bytes32"
        }
      ],
      "stateMutability": "view",
      "type": "function"
    },
    {
      "inputs": [],
      "name": "getAllProposals",
      "outputs": [
        {
          "components": [
            {
              "internalType": "bool",
              "name": "succeeded",
              "type": "bool"
            },
            {
              "internalType": "string",
              "name": "name",
              "type": "string"
            },
            {
              "internalType": "string",
              "name": "description",
              "type": "string"
            },
            {
              "internalType": "uint256",
              "name": "againstVotes",
              "type": "uint256"
            },
            {
              "internalType": "uint256",
              "name": "forVotes",
              "type": "uint256"
            }
          ],
          "internalType": "struct FID.Proposal[]",
          "name": "",
          "type": "tuple[]"
        }
      ],
      "stateMutability": "view",
      "type": "function"
    },
    {
      "inputs": [
        {
          "internalType": "address",
          "name": "_voterAddress",
          "type": "address"
        },
        {
          "internalType": "uint256",
          "name": "_voteId",
          "type": "uint256"
        }
      ],
      "name": "getHasVotedAgainstProposal",
      "outputs": [
        {
          "internalType": "bool",
          "name": "",
          "type": "bool"
        }
      ],
      "stateMutability": "view",
      "type": "function"
    },
    {
      "inputs": [
        {
          "internalType": "address",
          "name": "_voterAddress",
          "type": "address"
        },
        {
          "internalType": "uint256",
          "name": "_voteId",
          "type": "uint256"
        }
      ],
      "name": "getHasVotedForProposal",
      "outputs": [
        {
          "internalType": "bool",
          "name": "",
          "type": "bool"
        }
      ],
      "stateMutability": "view",
      "type": "function"
    },
    {
      "inputs": [
        {
          "internalType": "uint256",
          "name": "id",
          "type": "uint256"
        }
      ],
      "name": "getProposalById",
      "outputs": [
        {
          "components": [
            {
              "internalType": "bool",
              "name": "succeeded",
              "type": "bool"
            },
            {
              "internalType": "string",
              "name": "name",
              "type": "string"
            },
            {
              "internalType": "string",
              "name": "description",
              "type": "string"
            },
            {
              "internalType": "uint256",
              "name": "againstVotes",
              "type": "uint256"
            },
            {
              "internalType": "uint256",
              "name": "forVotes",
              "type": "uint256"
            }
          ],
          "internalType": "struct FID.Proposal",
          "name": "",
          "type": "tuple"
        }
      ],
      "stateMutability": "view",
      "type": "function"
    },
    {
      "inputs": [
        {
          "internalType": "uint256",
          "name": "",
          "type": "uint256"
        }
      ],
      "name": "proposals",
      "outputs": [
        {
          "internalType": "bool",
          "name": "succeeded",
          "type": "bool"
        },
        {
          "internalType": "string",
          "name": "name",
          "type": "string"
        },
        {
          "internalType": "string",
          "name": "description",
          "type": "string"
        },
        {
          "internalType": "uint256",
          "name": "againstVotes",
          "type": "uint256"
        },
        {
          "internalType": "uint256",
          "name": "forVotes",
          "type": "uint256"
        }
      ],
      "stateMutability": "view",
      "type": "function"
    },
    {
      "inputs": [
        {
          "internalType": "string",
          "name": "_name",
          "type": "string"
        },
        {
          "internalType": "string",
          "name": "_description",
          "type": "string"
        }
      ],
      "name": "propose",
      "outputs": [
        {
          "internalType": "uint256",
          "name": "",
          "type": "uint256"
        }
      ],
      "stateMutability": "nonpayable",
      "type": "function"
    },
    {
      "inputs": [
        {
          "internalType": "address",
          "name": "_addr",
          "type": "address"
        },
        {
          "internalType": "bytes32",
          "name": "_faceid",
          "type": "bytes32"
        }
      ],
      "name": "setAddressToFaceid",
      "outputs": [],
      "stateMutability": "nonpayable",
      "type": "function"
    },
    {
      "inputs": [
        {
          "internalType": "uint256",
          "name": "proposalId",
          "type": "uint256"
        },
        {
          "internalType": "uint8",
          "name": "voteType",
          "type": "uint8"
        }
      ],
      "name": "vote",
      "outputs": [],
      "stateMutability": "nonpayable",
      "type": "function"
    }
  ],
  "bytecode": "0x60806040526000600455600060065534801561001a57600080fd5b50611c228061002a6000396000f3fe608060405234801561001057600080fd5b506004361061009e5760003560e01c806399d81cf01161006657806399d81cf01461016f578063bce0930b1461019f578063cceb68f5146101cf578063d07e9ac2146101ed578063e6ee7cd21461021d5761009e565b8063013cf08b146100a35780631c4afc57146100d75780633656de2114610107578063384ca96d14610137578063943e821614610153575b600080fd5b6100bd60048036038101906100b891906110e2565b61024d565b6040516100ce9594939291906111d2565b60405180910390f35b6100f160048036038101906100ec9190611368565b6103a0565b6040516100fe91906113e0565b60405180910390f35b610121600480360381019061011c91906110e2565b6104b0565b60405161012e91906114e0565b60405180910390f35b610151600480360381019061014c9190611596565b610630565b005b61016d6004803603810190610168919061160f565b6106eb565b005b6101896004803603810190610184919061164f565b610c7c565b604051610196919061168f565b60405180910390f35b6101b960048036038101906101b491906116aa565b610ce4565b6040516101c691906116e6565b60405180910390f35b6101d7610cfc565b6040516101e49190611840565b60405180910390f35b610207600480360381019061020291906116aa565b610f13565b60405161021491906116e6565b60405180910390f35b6102376004803603810190610232919061164f565b610f5c565b604051610244919061168f565b60405180910390f35b60036020528060005260406000206000915090508060000160009054906101000a900460ff169080600101805461028390611891565b80601f01602080910402602001604051908101604052809291908181526020018280546102af90611891565b80156102fc5780601f106102d1576101008083540402835291602001916102fc565b820191906000526020600020905b8154815290600101906020018083116102df57829003601f168201915b50505050509080600201805461031190611891565b80601f016020809104026020016040519081016040528092919081815260200182805461033d90611891565b801561038a5780601f1061035f5761010080835404028352916020019161038a565b820191906000526020600020905b81548152906001019060200180831161036d57829003601f168201915b5050505050908060030154908060040154905085565b60006004600081546103b1906118f2565b91905081905550600060045490506040518060a001604052806000151581526020018581526020018481526020016000815260200160008152506003600083815260200190815260200160002060008201518160000160006101000a81548160ff021916908315150217905550602082015181600101908051906020019061043a929190610fc4565b506040820151816002019080519060200190610457929190610fc4565b5060608201518160030155608082015181600401559050507f3f802220982dbddc337f1811180e73513e775b18380401997927fd1454cfd0bd8160405161049e91906113e0565b60405180910390a18091505092915050565b6104b861104a565b600360008381526020019081526020016000206040518060a00160405290816000820160009054906101000a900460ff1615151515815260200160018201805461050190611891565b80601f016020809104026020016040519081016040528092919081815260200182805461052d90611891565b801561057a5780601f1061054f5761010080835404028352916020019161057a565b820191906000526020600020905b81548152906001019060200180831161055d57829003601f168201915b5050505050815260200160028201805461059390611891565b80601f01602080910402602001604051908101604052809291908181526020018280546105bf90611891565b801561060c5780601f106105e15761010080835404028352916020019161060c565b820191906000526020600020905b8154815290600101906020018083116105ef57829003601f168201915b50505050508152602001600382015481526020016004820154815250509050919050565b600015156007600083815260200190815260200160002060009054906101000a900460ff1615151461066157600080fd5b60016007600083815260200190815260200160002060006101000a81548160ff02191690831515021790555080600560008473ffffffffffffffffffffffffffffffffffffffff1673ffffffffffffffffffffffffffffffffffffffff168152602001908152602001600020819055506006600081546106e0906118f2565b919050819055505050565b600060036000848152602001908152602001600020905060008260ff16141561092257600260003373ffffffffffffffffffffffffffffffffffffffff1673ffffffffffffffffffffffffffffffffffffffff168152602001908152602001600020600084815260200190815260200160002060009054906101000a900460ff16156107ac576040517f08c379a00000000000000000000000000000000000000000000000000000000081526004016107a390611987565b60405180910390fd5b60011515600160003373ffffffffffffffffffffffffffffffffffffffff1673ffffffffffffffffffffffffffffffffffffffff168152602001908152602001600020600085815260200190815260200160002060009054906101000a900460ff16151514156108315780600401600081548092919061082b906119a7565b91905055505b806003016000815480929190610846906118f2565b91905055506001600260003373ffffffffffffffffffffffffffffffffffffffff1673ffffffffffffffffffffffffffffffffffffffff168152602001908152602001600020600085815260200190815260200160002060006101000a81548160ff0219169083151502179055506000600160003373ffffffffffffffffffffffffffffffffffffffff1673ffffffffffffffffffffffffffffffffffffffff168152602001908152602001600020600085815260200190815260200160002060006101000a81548160ff021916908315150217905550610b3e565b60018260ff161415610b3d57600160003373ffffffffffffffffffffffffffffffffffffffff1673ffffffffffffffffffffffffffffffffffffffff168152602001908152602001600020600084815260200190815260200160002060009054906101000a900460ff16156109cc576040517f08c379a00000000000000000000000000000000000000000000000000000000081526004016109c390611a1d565b60405180910390fd5b60011515600260003373ffffffffffffffffffffffffffffffffffffffff1673ffffffffffffffffffffffffffffffffffffffff168152602001908152602001600020600085815260200190815260200160002060009054906101000a900460ff1615151415610a5157806003016000815480929190610a4b906119a7565b91905055505b806004016000815480929190610a66906118f2565b919050555060018060003373ffffffffffffffffffffffffffffffffffffffff1673ffffffffffffffffffffffffffffffffffffffff168152602001908152602001600020600085815260200190815260200160002060006101000a81548160ff0219169083151502179055506000600260003373ffffffffffffffffffffffffffffffffffffffff1673ffffffffffffffffffffffffffffffffffffffff168152602001908152602001600020600085815260200190815260200160002060006101000a81548160ff0219169083151502179055505b5b600060646042600654610b519190611a3d565b610b5b9190611ac6565b90508160030154826004015411610ba7576040517f08c379a0000000000000000000000000000000000000000000000000000000008152600401610b9e90611b69565b60405180910390fd5b600082600301548360040154610bbd9190611b89565b905081811115610c205760018360000160006101000a81548160ff0219169083151502179055507fe31a7af544b899d3d48ac6e1118ce04897587f9262886cf3bf572e2207a432df85604051610c1391906113e0565b60405180910390a1610c75565b60008360000160006101000a81548160ff0219169083151502179055507f0b0a80acf5b5f3bf3412084eb9c2442ef91af281dced010374391f5e13c5d9dc85604051610c6c91906113e0565b60405180910390a15b5050505050565b6000600160008473ffffffffffffffffffffffffffffffffffffffff1673ffffffffffffffffffffffffffffffffffffffff168152602001908152602001600020600083815260200190815260200160002060009054906101000a900460ff16905092915050565b60056020528060005260406000206000915090505481565b6060600060045467ffffffffffffffff811115610d1c57610d1b61123d565b5b604051908082528060200260200182016040528015610d5557816020015b610d4261104a565b815260200190600190039081610d3a5790505b5090506000600190505b600454811015610f0b57600360008281526020019081526020016000206040518060a00160405290816000820160009054906101000a900460ff16151515158152602001600182018054610db290611891565b80601f0160208091040260200160405190810160405280929190818152602001828054610dde90611891565b8015610e2b5780601f10610e0057610100808354040283529160200191610e2b565b820191906000526020600020905b815481529060010190602001808311610e0e57829003601f168201915b50505050508152602001600282018054610e4490611891565b80601f0160208091040260200160405190810160405280929190818152602001828054610e7090611891565b8015610ebd5780601f10610e9257610100808354040283529160200191610ebd565b820191906000526020600020905b815481529060010190602001808311610ea057829003601f168201915b5050505050815260200160038201548152602001600482015481525050828281518110610eed57610eec611bbd565b5b60200260200101819052508080610f03906118f2565b915050610d5f565b508091505090565b6000600560008373ffffffffffffffffffffffffffffffffffffffff1673ffffffffffffffffffffffffffffffffffffffff168152602001908152602001600020549050919050565b6000600260008473ffffffffffffffffffffffffffffffffffffffff1673ffffffffffffffffffffffffffffffffffffffff168152602001908152602001600020600083815260200190815260200160002060009054906101000a900460ff16905092915050565b828054610fd090611891565b90600052602060002090601f016020900481019282610ff25760008555611039565b82601f1061100b57805160ff1916838001178555611039565b82800160010185558215611039579182015b8281111561103857825182559160200191906001019061101d565b5b509050611046919061107b565b5090565b6040518060a00160405280600015158152602001606081526020016060815260200160008152602001600081525090565b5b8082111561109457600081600090555060010161107c565b5090565b6000604051905090565b600080fd5b600080fd5b6000819050919050565b6110bf816110ac565b81146110ca57600080fd5b50565b6000813590506110dc816110b6565b92915050565b6000602082840312156110f8576110f76110a2565b5b6000611106848285016110cd565b91505092915050565b60008115159050919050565b6111248161110f565b82525050565b600081519050919050565b600082825260208201905092915050565b60005b83811015611164578082015181840152602081019050611149565b83811115611173576000848401525b50505050565b6000601f19601f8301169050919050565b60006111958261112a565b61119f8185611135565b93506111af818560208601611146565b6111b881611179565b840191505092915050565b6111cc816110ac565b82525050565b600060a0820190506111e7600083018861111b565b81810360208301526111f9818761118a565b9050818103604083015261120d818661118a565b905061121c60608301856111c3565b61122960808301846111c3565b9695505050505050565b600080fd5b600080fd5b7f4e487b7100000000000000000000000000000000000000000000000000000000600052604160045260246000fd5b61127582611179565b810181811067ffffffffffffffff821117156112945761129361123d565b5b80604052505050565b60006112a7611098565b90506112b3828261126c565b919050565b600067ffffffffffffffff8211156112d3576112d261123d565b5b6112dc82611179565b9050602081019050919050565b82818337600083830152505050565b600061130b611306846112b8565b61129d565b90508281526020810184848401111561132757611326611238565b5b6113328482856112e9565b509392505050565b600082601f83011261134f5761134e611233565b5b813561135f8482602086016112f8565b91505092915050565b6000806040838503121561137f5761137e6110a2565b5b600083013567ffffffffffffffff81111561139d5761139c6110a7565b5b6113a98582860161133a565b925050602083013567ffffffffffffffff8111156113ca576113c96110a7565b5b6113d68582860161133a565b9150509250929050565b60006020820190506113f560008301846111c3565b92915050565b6114048161110f565b82525050565b600082825260208201905092915050565b60006114268261112a565b611430818561140a565b9350611440818560208601611146565b61144981611179565b840191505092915050565b61145d816110ac565b82525050565b600060a08301600083015161147b60008601826113fb565b5060208301518482036020860152611493828261141b565b915050604083015184820360408601526114ad828261141b565b91505060608301516114c26060860182611454565b5060808301516114d56080860182611454565b508091505092915050565b600060208201905081810360008301526114fa8184611463565b905092915050565b600073ffffffffffffffffffffffffffffffffffffffff82169050919050565b600061152d82611502565b9050919050565b61153d81611522565b811461154857600080fd5b50565b60008135905061155a81611534565b92915050565b6000819050919050565b61157381611560565b811461157e57600080fd5b50565b6000813590506115908161156a565b92915050565b600080604083850312156115ad576115ac6110a2565b5b60006115bb8582860161154b565b92505060206115cc85828601611581565b9150509250929050565b600060ff82169050919050565b6115ec816115d6565b81146115f757600080fd5b50565b600081359050611609816115e3565b92915050565b60008060408385031215611626576116256110a2565b5b6000611634858286016110cd565b9250506020611645858286016115fa565b9150509250929050565b60008060408385031215611666576116656110a2565b5b60006116748582860161154b565b9250506020611685858286016110cd565b9150509250929050565b60006020820190506116a4600083018461111b565b92915050565b6000602082840312156116c0576116bf6110a2565b5b60006116ce8482850161154b565b91505092915050565b6116e081611560565b82525050565b60006020820190506116fb60008301846116d7565b92915050565b600081519050919050565b600082825260208201905092915050565b6000819050602082019050919050565b600060a08301600083015161174560008601826113fb565b506020830151848203602086015261175d828261141b565b91505060408301518482036040860152611777828261141b565b915050606083015161178c6060860182611454565b50608083015161179f6080860182611454565b508091505092915050565b60006117b6838361172d565b905092915050565b6000602082019050919050565b60006117d682611701565b6117e0818561170c565b9350836020820285016117f28561171d565b8060005b8581101561182e578484038952815161180f85826117aa565b945061181a836117be565b925060208a019950506001810190506117f6565b50829750879550505050505092915050565b6000602082019050818103600083015261185a81846117cb565b905092915050565b7f4e487b7100000000000000000000000000000000000000000000000000000000600052602260045260246000fd5b600060028204905060018216806118a957607f821691505b602082108114156118bd576118bc611862565b5b50919050565b7f4e487b7100000000000000000000000000000000000000000000000000000000600052601160045260246000fd5b60006118fd826110ac565b91507fffffffffffffffffffffffffffffffffffffffffffffffffffffffffffffffff8214156119305761192f6118c3565b5b600182019050919050565b7f616c726561647920766f74656420616761696e73742070726f706f7365000000600082015250565b6000611971601d83611135565b915061197c8261193b565b602082019050919050565b600060208201905081810360008301526119a081611964565b9050919050565b60006119b2826110ac565b915060008214156119c6576119c56118c3565b5b600182039050919050565b7f616c726561647920766f74656420666f722070726f706f736500000000000000600082015250565b6000611a07601983611135565b9150611a12826119d1565b602082019050919050565b60006020820190508181036000830152611a36816119fa565b9050919050565b6000611a48826110ac565b9150611a53836110ac565b9250817fffffffffffffffffffffffffffffffffffffffffffffffffffffffffffffffff0483118215151615611a8c57611a8b6118c3565b5b828202905092915050565b7f4e487b7100000000000000000000000000000000000000000000000000000000600052601260045260246000fd5b6000611ad1826110ac565b9150611adc836110ac565b925082611aec57611aeb611a97565b5b828204905092915050565b7f666f72566f746573206d7573742062652067726561746572207468616e20616760008201527f61696e7374566f74657300000000000000000000000000000000000000000000602082015250565b6000611b53602a83611135565b9150611b5e82611af7565b604082019050919050565b60006020820190508181036000830152611b8281611b46565b9050919050565b6000611b94826110ac565b9150611b9f836110ac565b925082821015611bb257611bb16118c3565b5b828203905092915050565b7f4e487b7100000000000000000000000000000000000000000000000000000000600052603260045260246000fdfea26469706673582212203b4350209841fa5dd868a3acce943cdf651db103e8092fe8783b0240f72e50a764736f6c63430008090033",
  "linkReferences": {},
  "deployedLinkReferences": {}
}