{
  "_format": "hh-sol-artifact-1",
  "contractName": "FID",
  "sourceName": "contracts/FID.sol",
  "abi": [
    {
      "anonymous": false,
      "inputs": [
        {
          "indexed": false,
          "internalType": "uint256",
          "name": "proposalId",
          "type": "uint256"
        }
      ],
      "name": "ProposalAdded",
      "type": "event"
    },
    {
      "inputs": [
        {
          "internalType": "address",
          "name": "",
          "type": "address"
        }
      ],
      "name": "AddressToFaceid",
      "outputs": [
        {
          "internalType": "bytes32",
          "name": "",
          "type": "bytes32"
        }
      ],
      "stateMutability": "view",
      "type": "function"
    },
    {
      "inputs": [
        {
          "internalType": "address",
          "name": "_addr",
          "type": "address"
        }
      ],
      "name": "getAddressToFaceid",
      "outputs": [
        {
          "internalType": "bytes32",
          "name": "",
          "type": "bytes32"
        }
      ],
      "stateMutability": "view",
      "type": "function"
    },
    {
      "inputs": [],
      "name": "getAllProposals",
      "outputs": [
        {
          "components": [
            {
              "internalType": "bool",
              "name": "succeeded",
              "type": "bool"
            },
            {
              "internalType": "string",
              "name": "description",
              "type": "string"
            },
            {
              "internalType": "uint256",
              "name": "againstVotes",
              "type": "uint256"
            },
            {
              "internalType": "uint256",
              "name": "forVotes",
              "type": "uint256"
            }
          ],
          "internalType": "struct FID.Proposal[]",
          "name": "",
          "type": "tuple[]"
        }
      ],
      "stateMutability": "view",
      "type": "function"
    },
    {
      "inputs": [
        {
          "internalType": "uint256",
          "name": "",
          "type": "uint256"
        }
      ],
      "name": "proposals",
      "outputs": [
        {
          "internalType": "bool",
          "name": "succeeded",
          "type": "bool"
        },
        {
          "internalType": "string",
          "name": "description",
          "type": "string"
        },
        {
          "internalType": "uint256",
          "name": "againstVotes",
          "type": "uint256"
        },
        {
          "internalType": "uint256",
          "name": "forVotes",
          "type": "uint256"
        }
      ],
      "stateMutability": "view",
      "type": "function"
    },
    {
      "inputs": [
        {
          "internalType": "string",
          "name": "_description",
          "type": "string"
        }
      ],
      "name": "propose",
      "outputs": [
        {
          "internalType": "uint256",
          "name": "",
          "type": "uint256"
        }
      ],
      "stateMutability": "nonpayable",
      "type": "function"
    },
    {
      "inputs": [
        {
          "internalType": "address",
          "name": "_addr",
          "type": "address"
        },
        {
          "internalType": "bytes32",
          "name": "_i",
          "type": "bytes32"
        }
      ],
      "name": "setAddressToFaceid",
      "outputs": [],
      "stateMutability": "nonpayable",
      "type": "function"
    },
    {
      "inputs": [
        {
          "internalType": "uint256",
          "name": "proposalId",
          "type": "uint256"
        },
        {
          "internalType": "uint8",
          "name": "voteType",
          "type": "uint8"
        }
      ],
      "name": "vote",
      "outputs": [],
      "stateMutability": "nonpayable",
      "type": "function"
    },
    {
      "stateMutability": "payable",
      "type": "receive"
    }
  ],
  "bytecode": "0x60806040526000600255600060045534801561001a57600080fd5b50610f858061002a6000396000f3fe6080604052600436106100745760003560e01c8063aa98df391161004e578063aa98df3914610112578063bce0930b1461014f578063cceb68f51461018c578063d07e9ac2146101b75761007b565b8063013cf08b14610080578063384ca96d146100c0578063943e8216146100e95761007b565b3661007b57005b600080fd5b34801561008c57600080fd5b506100a760048036038101906100a2919061081f565b6101f4565b6040516100b7949392919061090f565b60405180910390f35b3480156100cc57600080fd5b506100e760048036038101906100e291906109ef565b6102b9565b005b3480156100f557600080fd5b50610110600480360381019061010b9190610a68565b610374565b005b34801561011e57600080fd5b5061013960048036038101906101349190610bdd565b61043a565b6040516101469190610c26565b60405180910390f35b34801561015b57600080fd5b5061017660048036038101906101719190610c41565b610526565b6040516101839190610c7d565b60405180910390f35b34801561019857600080fd5b506101a161053e565b6040516101ae9190610e25565b60405180910390f35b3480156101c357600080fd5b506101de60048036038101906101d99190610c41565b6106bf565b6040516101eb9190610c7d565b60405180910390f35b60016020528060005260406000206000915090508060000160009054906101000a900460ff169080600101805461022a90610e76565b80601f016020809104026020016040519081016040528092919081815260200182805461025690610e76565b80156102a35780601f10610278576101008083540402835291602001916102a3565b820191906000526020600020905b81548152906001019060200180831161028657829003601f168201915b5050505050908060020154908060030154905084565b600015156005600083815260200190815260200160002060009054906101000a900460ff161515146102ea57600080fd5b60016005600083815260200190815260200160002060006101000a81548160ff02191690831515021790555080600360008473ffffffffffffffffffffffffffffffffffffffff1673ffffffffffffffffffffffffffffffffffffffff1681526020019081526020016000208190555060046000815461036990610ed7565b919050819055505050565b600060016000848152602001908152602001600020905060008260ff1614156103b6578060020160008154809291906103ac90610ed7565b91905055506103de565b60018260ff1614156103dd578060030160008154809291906103d790610ed7565b91905055505b5b60016000803373ffffffffffffffffffffffffffffffffffffffff1673ffffffffffffffffffffffffffffffffffffffff16815260200190815260200160002060006101000a81548160ff021916908315150217905550505050565b600060026000815461044b90610ed7565b919050819055506000600254905060405180608001604052806000151581526020018481526020016000815260200160008152506001600083815260200190815260200160002060008201518160000160006101000a81548160ff02191690831515021790555060208201518160010190805190602001906104ce929190610708565b5060408201518160020155606082015181600301559050507f3f802220982dbddc337f1811180e73513e775b18380401997927fd1454cfd0bd816040516105159190610c26565b60405180910390a180915050919050565b60036020528060005260406000206000915090505481565b6060600060025467ffffffffffffffff81111561055e5761055d610ab2565b5b60405190808252806020026020018201604052801561059757816020015b61058461078e565b81526020019060019003908161057c5790505b50905060005b6002548110156106b757600160008281526020019081526020016000206040518060800160405290816000820160009054906101000a900460ff161515151581526020016001820180546105f090610e76565b80601f016020809104026020016040519081016040528092919081815260200182805461061c90610e76565b80156106695780601f1061063e57610100808354040283529160200191610669565b820191906000526020600020905b81548152906001019060200180831161064c57829003601f168201915b505050505081526020016002820154815260200160038201548152505082828151811061069957610698610f20565b5b602002602001018190525080806106af90610ed7565b91505061059d565b508091505090565b6000600360008373ffffffffffffffffffffffffffffffffffffffff1673ffffffffffffffffffffffffffffffffffffffff168152602001908152602001600020549050919050565b82805461071490610e76565b90600052602060002090601f016020900481019282610736576000855561077d565b82601f1061074f57805160ff191683800117855561077d565b8280016001018555821561077d579182015b8281111561077c578251825591602001919060010190610761565b5b50905061078a91906107b8565b5090565b60405180608001604052806000151581526020016060815260200160008152602001600081525090565b5b808211156107d15760008160009055506001016107b9565b5090565b6000604051905090565b600080fd5b600080fd5b6000819050919050565b6107fc816107e9565b811461080757600080fd5b50565b600081359050610819816107f3565b92915050565b600060208284031215610835576108346107df565b5b60006108438482850161080a565b91505092915050565b60008115159050919050565b6108618161084c565b82525050565b600081519050919050565b600082825260208201905092915050565b60005b838110156108a1578082015181840152602081019050610886565b838111156108b0576000848401525b50505050565b6000601f19601f8301169050919050565b60006108d282610867565b6108dc8185610872565b93506108ec818560208601610883565b6108f5816108b6565b840191505092915050565b610909816107e9565b82525050565b60006080820190506109246000830187610858565b818103602083015261093681866108c7565b90506109456040830185610900565b6109526060830184610900565b95945050505050565b600073ffffffffffffffffffffffffffffffffffffffff82169050919050565b60006109868261095b565b9050919050565b6109968161097b565b81146109a157600080fd5b50565b6000813590506109b38161098d565b92915050565b6000819050919050565b6109cc816109b9565b81146109d757600080fd5b50565b6000813590506109e9816109c3565b92915050565b60008060408385031215610a0657610a056107df565b5b6000610a14858286016109a4565b9250506020610a25858286016109da565b9150509250929050565b600060ff82169050919050565b610a4581610a2f565b8114610a5057600080fd5b50565b600081359050610a6281610a3c565b92915050565b60008060408385031215610a7f57610a7e6107df565b5b6000610a8d8582860161080a565b9250506020610a9e85828601610a53565b9150509250929050565b600080fd5b600080fd5b7f4e487b7100000000000000000000000000000000000000000000000000000000600052604160045260246000fd5b610aea826108b6565b810181811067ffffffffffffffff82111715610b0957610b08610ab2565b5b80604052505050565b6000610b1c6107d5565b9050610b288282610ae1565b919050565b600067ffffffffffffffff821115610b4857610b47610ab2565b5b610b51826108b6565b9050602081019050919050565b82818337600083830152505050565b6000610b80610b7b84610b2d565b610b12565b905082815260208101848484011115610b9c57610b9b610aad565b5b610ba7848285610b5e565b509392505050565b600082601f830112610bc457610bc3610aa8565b5b8135610bd4848260208601610b6d565b91505092915050565b600060208284031215610bf357610bf26107df565b5b600082013567ffffffffffffffff811115610c1157610c106107e4565b5b610c1d84828501610baf565b91505092915050565b6000602082019050610c3b6000830184610900565b92915050565b600060208284031215610c5757610c566107df565b5b6000610c65848285016109a4565b91505092915050565b610c77816109b9565b82525050565b6000602082019050610c926000830184610c6e565b92915050565b600081519050919050565b600082825260208201905092915050565b6000819050602082019050919050565b610ccd8161084c565b82525050565b600082825260208201905092915050565b6000610cef82610867565b610cf98185610cd3565b9350610d09818560208601610883565b610d12816108b6565b840191505092915050565b610d26816107e9565b82525050565b6000608083016000830151610d446000860182610cc4565b5060208301518482036020860152610d5c8282610ce4565b9150506040830151610d716040860182610d1d565b506060830151610d846060860182610d1d565b508091505092915050565b6000610d9b8383610d2c565b905092915050565b6000602082019050919050565b6000610dbb82610c98565b610dc58185610ca3565b935083602082028501610dd785610cb4565b8060005b85811015610e135784840389528151610df48582610d8f565b9450610dff83610da3565b925060208a01995050600181019050610ddb565b50829750879550505050505092915050565b60006020820190508181036000830152610e3f8184610db0565b905092915050565b7f4e487b7100000000000000000000000000000000000000000000000000000000600052602260045260246000fd5b60006002820490506001821680610e8e57607f821691505b60208210811415610ea257610ea1610e47565b5b50919050565b7f4e487b7100000000000000000000000000000000000000000000000000000000600052601160045260246000fd5b6000610ee2826107e9565b91507fffffffffffffffffffffffffffffffffffffffffffffffffffffffffffffffff821415610f1557610f14610ea8565b5b600182019050919050565b7f4e487b7100000000000000000000000000000000000000000000000000000000600052603260045260246000fdfea2646970667358221220eb7648f30ddd3de2585b44948a97203a83b35d19c6e23fc9d272d21f5a65c34b64736f6c63430008090033",
  "linkReferences": {},
  "deployedLinkReferences": {}
}