{
  "_format": "hh-sol-artifact-1",
  "contractName": "FID",
  "sourceName": "contracts/FID.sol",
  "abi": [
    {
      "anonymous": false,
      "inputs": [
        {
          "indexed": false,
          "internalType": "uint256",
          "name": "proposalId",
          "type": "uint256"
        }
      ],
      "name": "ProposalAdded",
      "type": "event"
    },
    {
      "inputs": [
        {
          "internalType": "address",
          "name": "",
          "type": "address"
        }
      ],
      "name": "AddressToFaceid",
      "outputs": [
        {
          "internalType": "bytes32",
          "name": "",
          "type": "bytes32"
        }
      ],
      "stateMutability": "view",
      "type": "function"
    },
    {
      "inputs": [
        {
          "internalType": "address",
          "name": "_addr",
          "type": "address"
        }
      ],
      "name": "getAddressToFaceid",
      "outputs": [
        {
          "internalType": "bytes32",
          "name": "",
          "type": "bytes32"
        }
      ],
      "stateMutability": "view",
      "type": "function"
    },
    {
      "inputs": [],
      "name": "getAllProposals",
      "outputs": [
        {
          "components": [
            {
              "internalType": "bool",
              "name": "succeeded",
              "type": "bool"
            },
            {
              "internalType": "string",
              "name": "description",
              "type": "string"
            }
          ],
          "internalType": "struct FID.Proposal[]",
          "name": "",
          "type": "tuple[]"
        }
      ],
      "stateMutability": "view",
      "type": "function"
    },
    {
      "inputs": [
        {
          "internalType": "uint256",
          "name": "",
          "type": "uint256"
        }
      ],
      "name": "proposalVotes",
      "outputs": [
        {
          "internalType": "uint256",
          "name": "againstVotes",
          "type": "uint256"
        },
        {
          "internalType": "uint256",
          "name": "forVotes",
          "type": "uint256"
        }
      ],
      "stateMutability": "view",
      "type": "function"
    },
    {
      "inputs": [
        {
          "internalType": "uint256",
          "name": "",
          "type": "uint256"
        }
      ],
      "name": "proposals",
      "outputs": [
        {
          "internalType": "bool",
          "name": "succeeded",
          "type": "bool"
        },
        {
          "internalType": "string",
          "name": "description",
          "type": "string"
        }
      ],
      "stateMutability": "view",
      "type": "function"
    },
    {
      "inputs": [
        {
          "internalType": "string",
          "name": "_description",
          "type": "string"
        }
      ],
      "name": "propose",
      "outputs": [
        {
          "internalType": "uint256",
          "name": "",
          "type": "uint256"
        }
      ],
      "stateMutability": "nonpayable",
      "type": "function"
    },
    {
      "inputs": [
        {
          "internalType": "address",
          "name": "_addr",
          "type": "address"
        },
        {
          "internalType": "bytes32",
          "name": "_i",
          "type": "bytes32"
        }
      ],
      "name": "setAddressToFaceid",
      "outputs": [],
      "stateMutability": "nonpayable",
      "type": "function"
    },
    {
      "inputs": [
        {
          "internalType": "uint256",
          "name": "proposalId",
          "type": "uint256"
        },
        {
          "internalType": "uint8",
          "name": "voteType",
          "type": "uint8"
        }
      ],
      "name": "vote",
      "outputs": [],
      "stateMutability": "nonpayable",
      "type": "function"
    },
    {
      "stateMutability": "payable",
      "type": "receive"
    }
  ],
  "bytecode": "0x60806040526000600255600060045534801561001a57600080fd5b506110c98061002a6000396000f3fe60806040526004361061007f5760003560e01c8063aa98df391161004e578063aa98df3914610159578063bce0930b14610196578063cceb68f5146101d3578063d07e9ac2146101fe57610086565b8063013cf08b1461008b578063384ca96d146100c9578063544ffc9c146100f2578063943e82161461013057610086565b3661008657005b600080fd5b34801561009757600080fd5b506100b260048036038101906100ad919061091f565b61023b565b6040516100c0929190610a00565b60405180910390f35b3480156100d557600080fd5b506100f060048036038101906100eb9190610ac4565b6102f4565b005b3480156100fe57600080fd5b506101196004803603810190610114919061091f565b6103af565b604051610127929190610b13565b60405180910390f35b34801561013c57600080fd5b5061015760048036038101906101529190610b75565b6103d3565b005b34801561016557600080fd5b50610180600480360381019061017b9190610cea565b610580565b60405161018d9190610d33565b60405180910390f35b3480156101a257600080fd5b506101bd60048036038101906101b89190610d4e565b610649565b6040516101ca9190610d8a565b60405180910390f35b3480156101df57600080fd5b506101e8610661565b6040516101f59190610efd565b60405180910390f35b34801561020a57600080fd5b5061022560048036038101906102209190610d4e565b6107cd565b6040516102329190610d8a565b60405180910390f35b60006020528060005260406000206000915090508060000160009054906101000a900460ff169080600101805461027190610f4e565b80601f016020809104026020016040519081016040528092919081815260200182805461029d90610f4e565b80156102ea5780601f106102bf576101008083540402835291602001916102ea565b820191906000526020600020905b8154815290600101906020018083116102cd57829003601f168201915b5050505050905082565b600015156005600083815260200190815260200160002060009054906101000a900460ff1615151461032557600080fd5b60016005600083815260200190815260200160002060006101000a81548160ff02191690831515021790555080600360008473ffffffffffffffffffffffffffffffffffffffff1673ffffffffffffffffffffffffffffffffffffffff168152602001908152602001600020819055506004600081546103a490610faf565b919050819055505050565b60016020528060005260406000206000915090508060000154908060010154905082565b6000600360003373ffffffffffffffffffffffffffffffffffffffff1673ffffffffffffffffffffffffffffffffffffffff16815260200190815260200160002054905060008082141561042657600080fd5b60006001600086815260200190815260200160002090508060020160003373ffffffffffffffffffffffffffffffffffffffff1673ffffffffffffffffffffffffffffffffffffffff16815260200190815260200160002060009054906101000a900460ff16156104cc576040517f08c379a00000000000000000000000000000000000000000000000000000000081526004016104c390611044565b60405180910390fd5b60008460ff1614156104f7578060000160008154809291906104ed90610faf565b919050555061051f565b60018460ff16141561051e5780600101600081548092919061051890610faf565b91905055505b5b60018160020160003373ffffffffffffffffffffffffffffffffffffffff1673ffffffffffffffffffffffffffffffffffffffff16815260200190815260200160002060006101000a81548160ff0219169083151502179055505050505050565b600060026000815461059190610faf565b919050819055506000600254905060405180604001604052806000151581526020018481525060008083815260200190815260200160002060008201518160000160006101000a81548160ff0219169083151502179055506020820151816001019080519060200190610605929190610816565b509050507f3f802220982dbddc337f1811180e73513e775b18380401997927fd1454cfd0bd816040516106389190610d33565b60405180910390a180915050919050565b60036020528060005260406000206000915090505481565b6060600060025467ffffffffffffffff81111561068157610680610bbf565b5b6040519080825280602002602001820160405280156106ba57816020015b6106a761089c565b81526020019060019003908161069f5790505b50905060005b6002548110156107c5576000808281526020019081526020016000206040518060400160405290816000820160009054906101000a900460ff1615151515815260200160018201805461071290610f4e565b80601f016020809104026020016040519081016040528092919081815260200182805461073e90610f4e565b801561078b5780601f106107605761010080835404028352916020019161078b565b820191906000526020600020905b81548152906001019060200180831161076e57829003601f168201915b5050505050815250508282815181106107a7576107a6611064565b5b602002602001018190525080806107bd90610faf565b9150506106c0565b508091505090565b6000600360008373ffffffffffffffffffffffffffffffffffffffff1673ffffffffffffffffffffffffffffffffffffffff168152602001908152602001600020549050919050565b82805461082290610f4e565b90600052602060002090601f016020900481019282610844576000855561088b565b82601f1061085d57805160ff191683800117855561088b565b8280016001018555821561088b579182015b8281111561088a57825182559160200191906001019061086f565b5b50905061089891906108b8565b5090565b6040518060400160405280600015158152602001606081525090565b5b808211156108d15760008160009055506001016108b9565b5090565b6000604051905090565b600080fd5b600080fd5b6000819050919050565b6108fc816108e9565b811461090757600080fd5b50565b600081359050610919816108f3565b92915050565b600060208284031215610935576109346108df565b5b60006109438482850161090a565b91505092915050565b60008115159050919050565b6109618161094c565b82525050565b600081519050919050565b600082825260208201905092915050565b60005b838110156109a1578082015181840152602081019050610986565b838111156109b0576000848401525b50505050565b6000601f19601f8301169050919050565b60006109d282610967565b6109dc8185610972565b93506109ec818560208601610983565b6109f5816109b6565b840191505092915050565b6000604082019050610a156000830185610958565b8181036020830152610a2781846109c7565b90509392505050565b600073ffffffffffffffffffffffffffffffffffffffff82169050919050565b6000610a5b82610a30565b9050919050565b610a6b81610a50565b8114610a7657600080fd5b50565b600081359050610a8881610a62565b92915050565b6000819050919050565b610aa181610a8e565b8114610aac57600080fd5b50565b600081359050610abe81610a98565b92915050565b60008060408385031215610adb57610ada6108df565b5b6000610ae985828601610a79565b9250506020610afa85828601610aaf565b9150509250929050565b610b0d816108e9565b82525050565b6000604082019050610b286000830185610b04565b610b356020830184610b04565b9392505050565b600060ff82169050919050565b610b5281610b3c565b8114610b5d57600080fd5b50565b600081359050610b6f81610b49565b92915050565b60008060408385031215610b8c57610b8b6108df565b5b6000610b9a8582860161090a565b9250506020610bab85828601610b60565b9150509250929050565b600080fd5b600080fd5b7f4e487b7100000000000000000000000000000000000000000000000000000000600052604160045260246000fd5b610bf7826109b6565b810181811067ffffffffffffffff82111715610c1657610c15610bbf565b5b80604052505050565b6000610c296108d5565b9050610c358282610bee565b919050565b600067ffffffffffffffff821115610c5557610c54610bbf565b5b610c5e826109b6565b9050602081019050919050565b82818337600083830152505050565b6000610c8d610c8884610c3a565b610c1f565b905082815260208101848484011115610ca957610ca8610bba565b5b610cb4848285610c6b565b509392505050565b600082601f830112610cd157610cd0610bb5565b5b8135610ce1848260208601610c7a565b91505092915050565b600060208284031215610d0057610cff6108df565b5b600082013567ffffffffffffffff811115610d1e57610d1d6108e4565b5b610d2a84828501610cbc565b91505092915050565b6000602082019050610d486000830184610b04565b92915050565b600060208284031215610d6457610d636108df565b5b6000610d7284828501610a79565b91505092915050565b610d8481610a8e565b82525050565b6000602082019050610d9f6000830184610d7b565b92915050565b600081519050919050565b600082825260208201905092915050565b6000819050602082019050919050565b610dda8161094c565b82525050565b600082825260208201905092915050565b6000610dfc82610967565b610e068185610de0565b9350610e16818560208601610983565b610e1f816109b6565b840191505092915050565b6000604083016000830151610e426000860182610dd1565b5060208301518482036020860152610e5a8282610df1565b9150508091505092915050565b6000610e738383610e2a565b905092915050565b6000602082019050919050565b6000610e9382610da5565b610e9d8185610db0565b935083602082028501610eaf85610dc1565b8060005b85811015610eeb5784840389528151610ecc8582610e67565b9450610ed783610e7b565b925060208a01995050600181019050610eb3565b50829750879550505050505092915050565b60006020820190508181036000830152610f178184610e88565b905092915050565b7f4e487b7100000000000000000000000000000000000000000000000000000000600052602260045260246000fd5b60006002820490506001821680610f6657607f821691505b60208210811415610f7a57610f79610f1f565b5b50919050565b7f4e487b7100000000000000000000000000000000000000000000000000000000600052601160045260246000fd5b6000610fba826108e9565b91507fffffffffffffffffffffffffffffffffffffffffffffffffffffffffffffffff821415610fed57610fec610f80565b5b600182019050919050565b7f616c726561647920766f74656400000000000000000000000000000000000000600082015250565b600061102e600d83610972565b915061103982610ff8565b602082019050919050565b6000602082019050818103600083015261105d81611021565b9050919050565b7f4e487b7100000000000000000000000000000000000000000000000000000000600052603260045260246000fdfea2646970667358221220d0b07ec514f35fbe7c62ea821d31797aafa00f3709baa0533570abe2a5ad581764736f6c63430008090033",
  "linkReferences": {},
  "deployedLinkReferences": {}
}