{
  "_format": "hh-sol-artifact-1",
  "contractName": "FID",
  "sourceName": "contracts/FID.sol",
  "abi": [
    {
      "anonymous": false,
      "inputs": [
        {
          "indexed": false,
          "internalType": "address",
          "name": "msgSender",
          "type": "address"
        }
      ],
      "name": "AlreadyVoted",
      "type": "event"
    },
    {
      "anonymous": false,
      "inputs": [
        {
          "indexed": false,
          "internalType": "uint256",
          "name": "proposalId",
          "type": "uint256"
        }
      ],
      "name": "ProposalAdded",
      "type": "event"
    },
    {
      "anonymous": false,
      "inputs": [
        {
          "indexed": false,
          "internalType": "uint256",
          "name": "proposalId",
          "type": "uint256"
        }
      ],
      "name": "ProposalPending",
      "type": "event"
    },
    {
      "anonymous": false,
      "inputs": [
        {
          "indexed": false,
          "internalType": "uint256",
          "name": "proposalId",
          "type": "uint256"
        }
      ],
      "name": "ProposalSucceeded",
      "type": "event"
    },
    {
      "inputs": [
        {
          "internalType": "address",
          "name": "",
          "type": "address"
        }
      ],
      "name": "AddressToFaceid",
      "outputs": [
        {
          "internalType": "bytes32",
          "name": "",
          "type": "bytes32"
        }
      ],
      "stateMutability": "view",
      "type": "function"
    },
    {
      "inputs": [],
      "name": "fetchProposals",
      "outputs": [
        {
          "components": [
            {
              "internalType": "bool",
              "name": "succeeded",
              "type": "bool"
            },
            {
              "internalType": "string",
              "name": "name",
              "type": "string"
            },
            {
              "internalType": "string",
              "name": "description",
              "type": "string"
            },
            {
              "internalType": "uint256",
              "name": "againstVotes",
              "type": "uint256"
            },
            {
              "internalType": "uint256",
              "name": "forVotes",
              "type": "uint256"
            }
          ],
          "internalType": "struct FID.Proposal[]",
          "name": "",
          "type": "tuple[]"
        }
      ],
      "stateMutability": "view",
      "type": "function"
    },
    {
      "inputs": [
        {
          "internalType": "address",
          "name": "_addr",
          "type": "address"
        }
      ],
      "name": "getAddressToFaceid",
      "outputs": [
        {
          "internalType": "bytes32",
          "name": "",
          "type": "bytes32"
        }
      ],
      "stateMutability": "view",
      "type": "function"
    },
    {
      "inputs": [],
      "name": "getAllProposals",
      "outputs": [
        {
          "components": [
            {
              "internalType": "bool",
              "name": "succeeded",
              "type": "bool"
            },
            {
              "internalType": "string",
              "name": "name",
              "type": "string"
            },
            {
              "internalType": "string",
              "name": "description",
              "type": "string"
            },
            {
              "internalType": "uint256",
              "name": "againstVotes",
              "type": "uint256"
            },
            {
              "internalType": "uint256",
              "name": "forVotes",
              "type": "uint256"
            }
          ],
          "internalType": "struct FID.Proposal[]",
          "name": "",
          "type": "tuple[]"
        }
      ],
      "stateMutability": "view",
      "type": "function"
    },
    {
      "inputs": [
        {
          "internalType": "address",
          "name": "_voterAddress",
          "type": "address"
        },
        {
          "internalType": "uint256",
          "name": "_voteId",
          "type": "uint256"
        }
      ],
      "name": "getHasVotedAgainstProposal",
      "outputs": [
        {
          "internalType": "bool",
          "name": "",
          "type": "bool"
        }
      ],
      "stateMutability": "view",
      "type": "function"
    },
    {
      "inputs": [
        {
          "internalType": "address",
          "name": "_voterAddress",
          "type": "address"
        },
        {
          "internalType": "uint256",
          "name": "_voteId",
          "type": "uint256"
        }
      ],
      "name": "getHasVotedForProposal",
      "outputs": [
        {
          "internalType": "bool",
          "name": "",
          "type": "bool"
        }
      ],
      "stateMutability": "view",
      "type": "function"
    },
    {
      "inputs": [
        {
          "internalType": "uint256",
          "name": "id",
          "type": "uint256"
        }
      ],
      "name": "getProposalById",
      "outputs": [
        {
          "components": [
            {
              "internalType": "bool",
              "name": "succeeded",
              "type": "bool"
            },
            {
              "internalType": "string",
              "name": "name",
              "type": "string"
            },
            {
              "internalType": "string",
              "name": "description",
              "type": "string"
            },
            {
              "internalType": "uint256",
              "name": "againstVotes",
              "type": "uint256"
            },
            {
              "internalType": "uint256",
              "name": "forVotes",
              "type": "uint256"
            }
          ],
          "internalType": "struct FID.Proposal",
          "name": "",
          "type": "tuple"
        }
      ],
      "stateMutability": "view",
      "type": "function"
    },
    {
      "inputs": [
        {
          "internalType": "uint256",
          "name": "",
          "type": "uint256"
        }
      ],
      "name": "proposals",
      "outputs": [
        {
          "internalType": "bool",
          "name": "succeeded",
          "type": "bool"
        },
        {
          "internalType": "string",
          "name": "name",
          "type": "string"
        },
        {
          "internalType": "string",
          "name": "description",
          "type": "string"
        },
        {
          "internalType": "uint256",
          "name": "againstVotes",
          "type": "uint256"
        },
        {
          "internalType": "uint256",
          "name": "forVotes",
          "type": "uint256"
        }
      ],
      "stateMutability": "view",
      "type": "function"
    },
    {
      "inputs": [
        {
          "internalType": "string",
          "name": "_name",
          "type": "string"
        },
        {
          "internalType": "string",
          "name": "_description",
          "type": "string"
        }
      ],
      "name": "propose",
      "outputs": [
        {
          "internalType": "uint256",
          "name": "",
          "type": "uint256"
        }
      ],
      "stateMutability": "nonpayable",
      "type": "function"
    },
    {
      "inputs": [
        {
          "internalType": "address",
          "name": "_addr",
          "type": "address"
        },
        {
          "internalType": "bytes32",
          "name": "_faceid",
          "type": "bytes32"
        }
      ],
      "name": "setAddressToFaceid",
      "outputs": [],
      "stateMutability": "nonpayable",
      "type": "function"
    },
    {
      "inputs": [
        {
          "internalType": "uint256",
          "name": "proposalId",
          "type": "uint256"
        },
        {
          "internalType": "uint8",
          "name": "voteType",
          "type": "uint8"
        }
      ],
      "name": "vote",
      "outputs": [],
      "stateMutability": "nonpayable",
      "type": "function"
    }
  ],
  "bytecode": "0x60806040526000600555600060075534801561001a57600080fd5b50611f048061002a6000396000f3fe608060405234801561001057600080fd5b50600436106100a95760003560e01c8063943e821611610071578063943e82161461017c57806399d81cf014610198578063bce0930b146101c8578063cceb68f5146101f8578063d07e9ac214610216578063e6ee7cd214610246576100a9565b8063013cf08b146100ae5780631c4afc57146100e25780633656de2114610112578063384ca96d146101425780637e320d2f1461015e575b600080fd5b6100c860048036038101906100c3919061136e565b610276565b6040516100d995949392919061145e565b60405180910390f35b6100fc60048036038101906100f791906115f4565b6103c9565b604051610109919061166c565b60405180910390f35b61012c6004803603810190610127919061136e565b6104d4565b604051610139919061176c565b60405180910390f35b61015c60048036038101906101579190611822565b610654565b005b61016661070f565b60405161017391906119a1565b60405180910390f35b610196600480360381019061019191906119fc565b610956565b005b6101b260048036038101906101ad9190611a3c565b610ee8565b6040516101bf9190611a7c565b60405180910390f35b6101e260048036038101906101dd9190611a97565b610f50565b6040516101ef9190611ad3565b60405180910390f35b610200610f68565b60405161020d91906119a1565b60405180910390f35b610230600480360381019061022b9190611a97565b61117b565b60405161023d9190611ad3565b60405180910390f35b610260600480360381019061025b9190611a3c565b6111c4565b60405161026d9190611a7c565b60405180910390f35b60046020528060005260406000206000915090508060000160009054906101000a900460ff16908060010180546102ac90611b1d565b80601f01602080910402602001604051908101604052809291908181526020018280546102d890611b1d565b80156103255780601f106102fa57610100808354040283529160200191610325565b820191906000526020600020905b81548152906001019060200180831161030857829003601f168201915b50505050509080600201805461033a90611b1d565b80601f016020809104026020016040519081016040528092919081815260200182805461036690611b1d565b80156103b35780601f10610388576101008083540402835291602001916103b3565b820191906000526020600020905b81548152906001019060200180831161039657829003601f168201915b5050505050908060030154908060040154905085565b60006103d5600061122c565b60006103e16000611242565b90506040518060a001604052806000151581526020018581526020018481526020016000815260200160008152506004600083815260200190815260200160002060008201518160000160006101000a81548160ff021916908315150217905550602082015181600101908051906020019061045e929190611250565b50604082015181600201908051906020019061047b929190611250565b5060608201518160030155608082015181600401559050507f3f802220982dbddc337f1811180e73513e775b18380401997927fd1454cfd0bd816040516104c2919061166c565b60405180910390a18091505092915050565b6104dc6112d6565b600460008381526020019081526020016000206040518060a00160405290816000820160009054906101000a900460ff1615151515815260200160018201805461052590611b1d565b80601f016020809104026020016040519081016040528092919081815260200182805461055190611b1d565b801561059e5780601f106105735761010080835404028352916020019161059e565b820191906000526020600020905b81548152906001019060200180831161058157829003601f168201915b505050505081526020016002820180546105b790611b1d565b80601f01602080910402602001604051908101604052809291908181526020018280546105e390611b1d565b80156106305780601f1061060557610100808354040283529160200191610630565b820191906000526020600020905b81548152906001019060200180831161061357829003601f168201915b50505050508152602001600382015481526020016004820154815250509050919050565b600015156008600083815260200190815260200160002060009054906101000a900460ff1615151461068557600080fd5b60016008600083815260200190815260200160002060006101000a81548160ff02191690831515021790555080600660008473ffffffffffffffffffffffffffffffffffffffff1673ffffffffffffffffffffffffffffffffffffffff1681526020019081526020016000208190555060076000815461070490611b7e565b919050819055505050565b6060600061071d6000611242565b90506000808267ffffffffffffffff81111561073c5761073b6114c9565b5b60405190808252806020026020018201604052801561077557816020015b6107626112d6565b81526020019060019003908161075a5790505b50905060005b8381101561094c5760006001826107929190611bc7565b90506000600460008381526020019081526020016000209050806040518060a00160405290816000820160009054906101000a900460ff161515151581526020016001820180546107e290611b1d565b80601f016020809104026020016040519081016040528092919081815260200182805461080e90611b1d565b801561085b5780601f106108305761010080835404028352916020019161085b565b820191906000526020600020905b81548152906001019060200180831161083e57829003601f168201915b5050505050815260200160028201805461087490611b1d565b80601f01602080910402602001604051908101604052809291908181526020018280546108a090611b1d565b80156108ed5780601f106108c2576101008083540402835291602001916108ed565b820191906000526020600020905b8154815290600101906020018083116108d057829003601f168201915b505050505081526020016003820154815260200160048201548152505084868151811061091d5761091c611c1d565b5b60200260200101819052506001856109359190611bc7565b94505050808061094490611b7e565b91505061077b565b5080935050505090565b600060046000848152602001908152602001600020905060008260ff161415610b8d57600360003373ffffffffffffffffffffffffffffffffffffffff1673ffffffffffffffffffffffffffffffffffffffff168152602001908152602001600020600084815260200190815260200160002060009054906101000a900460ff1615610a17576040517f08c379a0000000000000000000000000000000000000000000000000000000008152600401610a0e90611c98565b60405180910390fd5b60011515600260003373ffffffffffffffffffffffffffffffffffffffff1673ffffffffffffffffffffffffffffffffffffffff168152602001908152602001600020600085815260200190815260200160002060009054906101000a900460ff1615151415610a9c57806004016000815480929190610a9690611cb8565b91905055505b806003016000815480929190610ab190611b7e565b91905055506001600360003373ffffffffffffffffffffffffffffffffffffffff1673ffffffffffffffffffffffffffffffffffffffff168152602001908152602001600020600085815260200190815260200160002060006101000a81548160ff0219169083151502179055506000600260003373ffffffffffffffffffffffffffffffffffffffff1673ffffffffffffffffffffffffffffffffffffffff168152602001908152602001600020600085815260200190815260200160002060006101000a81548160ff021916908315150217905550610daa565b60018260ff161415610da957600260003373ffffffffffffffffffffffffffffffffffffffff1673ffffffffffffffffffffffffffffffffffffffff168152602001908152602001600020600084815260200190815260200160002060009054906101000a900460ff1615610c37576040517f08c379a0000000000000000000000000000000000000000000000000000000008152600401610c2e90611d2e565b60405180910390fd5b60011515600360003373ffffffffffffffffffffffffffffffffffffffff1673ffffffffffffffffffffffffffffffffffffffff168152602001908152602001600020600085815260200190815260200160002060009054906101000a900460ff1615151415610cbc57806003016000815480929190610cb690611cb8565b91905055505b806004016000815480929190610cd190611b7e565b91905055506001600260003373ffffffffffffffffffffffffffffffffffffffff1673ffffffffffffffffffffffffffffffffffffffff168152602001908152602001600020600085815260200190815260200160002060006101000a81548160ff0219169083151502179055506000600360003373ffffffffffffffffffffffffffffffffffffffff1673ffffffffffffffffffffffffffffffffffffffff168152602001908152602001600020600085815260200190815260200160002060006101000a81548160ff0219169083151502179055505b5b600060646042600754610dbd9190611d4e565b610dc79190611dd7565b90508160030154826004015411610e13576040517f08c379a0000000000000000000000000000000000000000000000000000000008152600401610e0a90611e7a565b60405180910390fd5b600082600301548360040154610e299190611e9a565b905081811115610e8c5760018360000160006101000a81548160ff0219169083151502179055507fe31a7af544b899d3d48ac6e1118ce04897587f9262886cf3bf572e2207a432df85604051610e7f919061166c565b60405180910390a1610ee1565b60008360000160006101000a81548160ff0219169083151502179055507f0b0a80acf5b5f3bf3412084eb9c2442ef91af281dced010374391f5e13c5d9dc85604051610ed8919061166c565b60405180910390a15b5050505050565b6000600260008473ffffffffffffffffffffffffffffffffffffffff1673ffffffffffffffffffffffffffffffffffffffff168152602001908152602001600020600083815260200190815260200160002060009054906101000a900460ff16905092915050565b60066020528060005260406000206000915090505481565b6060600060055467ffffffffffffffff811115610f8857610f876114c9565b5b604051908082528060200260200182016040528015610fc157816020015b610fae6112d6565b815260200190600190039081610fa65790505b50905060005b60055481101561117357600460008281526020019081526020016000206040518060a00160405290816000820160009054906101000a900460ff1615151515815260200160018201805461101a90611b1d565b80601f016020809104026020016040519081016040528092919081815260200182805461104690611b1d565b80156110935780601f1061106857610100808354040283529160200191611093565b820191906000526020600020905b81548152906001019060200180831161107657829003601f168201915b505050505081526020016002820180546110ac90611b1d565b80601f01602080910402602001604051908101604052809291908181526020018280546110d890611b1d565b80156111255780601f106110fa57610100808354040283529160200191611125565b820191906000526020600020905b81548152906001019060200180831161110857829003601f168201915b505050505081526020016003820154815260200160048201548152505082828151811061115557611154611c1d565b5b6020026020010181905250808061116b90611b7e565b915050610fc7565b508091505090565b6000600660008373ffffffffffffffffffffffffffffffffffffffff1673ffffffffffffffffffffffffffffffffffffffff168152602001908152602001600020549050919050565b6000600360008473ffffffffffffffffffffffffffffffffffffffff1673ffffffffffffffffffffffffffffffffffffffff168152602001908152602001600020600083815260200190815260200160002060009054906101000a900460ff16905092915050565b6001816000016000828254019250508190555050565b600081600001549050919050565b82805461125c90611b1d565b90600052602060002090601f01602090048101928261127e57600085556112c5565b82601f1061129757805160ff19168380011785556112c5565b828001600101855582156112c5579182015b828111156112c45782518255916020019190600101906112a9565b5b5090506112d29190611307565b5090565b6040518060a00160405280600015158152602001606081526020016060815260200160008152602001600081525090565b5b80821115611320576000816000905550600101611308565b5090565b6000604051905090565b600080fd5b600080fd5b6000819050919050565b61134b81611338565b811461135657600080fd5b50565b60008135905061136881611342565b92915050565b6000602082840312156113845761138361132e565b5b600061139284828501611359565b91505092915050565b60008115159050919050565b6113b08161139b565b82525050565b600081519050919050565b600082825260208201905092915050565b60005b838110156113f05780820151818401526020810190506113d5565b838111156113ff576000848401525b50505050565b6000601f19601f8301169050919050565b6000611421826113b6565b61142b81856113c1565b935061143b8185602086016113d2565b61144481611405565b840191505092915050565b61145881611338565b82525050565b600060a08201905061147360008301886113a7565b81810360208301526114858187611416565b905081810360408301526114998186611416565b90506114a8606083018561144f565b6114b5608083018461144f565b9695505050505050565b600080fd5b600080fd5b7f4e487b7100000000000000000000000000000000000000000000000000000000600052604160045260246000fd5b61150182611405565b810181811067ffffffffffffffff821117156115205761151f6114c9565b5b80604052505050565b6000611533611324565b905061153f82826114f8565b919050565b600067ffffffffffffffff82111561155f5761155e6114c9565b5b61156882611405565b9050602081019050919050565b82818337600083830152505050565b600061159761159284611544565b611529565b9050828152602081018484840111156115b3576115b26114c4565b5b6115be848285611575565b509392505050565b600082601f8301126115db576115da6114bf565b5b81356115eb848260208601611584565b91505092915050565b6000806040838503121561160b5761160a61132e565b5b600083013567ffffffffffffffff81111561162957611628611333565b5b611635858286016115c6565b925050602083013567ffffffffffffffff81111561165657611655611333565b5b611662858286016115c6565b9150509250929050565b6000602082019050611681600083018461144f565b92915050565b6116908161139b565b82525050565b600082825260208201905092915050565b60006116b2826113b6565b6116bc8185611696565b93506116cc8185602086016113d2565b6116d581611405565b840191505092915050565b6116e981611338565b82525050565b600060a0830160008301516117076000860182611687565b506020830151848203602086015261171f82826116a7565b9150506040830151848203604086015261173982826116a7565b915050606083015161174e60608601826116e0565b50608083015161176160808601826116e0565b508091505092915050565b6000602082019050818103600083015261178681846116ef565b905092915050565b600073ffffffffffffffffffffffffffffffffffffffff82169050919050565b60006117b98261178e565b9050919050565b6117c9816117ae565b81146117d457600080fd5b50565b6000813590506117e6816117c0565b92915050565b6000819050919050565b6117ff816117ec565b811461180a57600080fd5b50565b60008135905061181c816117f6565b92915050565b600080604083850312156118395761183861132e565b5b6000611847858286016117d7565b92505060206118588582860161180d565b9150509250929050565b600081519050919050565b600082825260208201905092915050565b6000819050602082019050919050565b600060a0830160008301516118a66000860182611687565b50602083015184820360208601526118be82826116a7565b915050604083015184820360408601526118d882826116a7565b91505060608301516118ed60608601826116e0565b50608083015161190060808601826116e0565b508091505092915050565b6000611917838361188e565b905092915050565b6000602082019050919050565b600061193782611862565b611941818561186d565b9350836020820285016119538561187e565b8060005b8581101561198f5784840389528151611970858261190b565b945061197b8361191f565b925060208a01995050600181019050611957565b50829750879550505050505092915050565b600060208201905081810360008301526119bb818461192c565b905092915050565b600060ff82169050919050565b6119d9816119c3565b81146119e457600080fd5b50565b6000813590506119f6816119d0565b92915050565b60008060408385031215611a1357611a1261132e565b5b6000611a2185828601611359565b9250506020611a32858286016119e7565b9150509250929050565b60008060408385031215611a5357611a5261132e565b5b6000611a61858286016117d7565b9250506020611a7285828601611359565b9150509250929050565b6000602082019050611a9160008301846113a7565b92915050565b600060208284031215611aad57611aac61132e565b5b6000611abb848285016117d7565b91505092915050565b611acd816117ec565b82525050565b6000602082019050611ae86000830184611ac4565b92915050565b7f4e487b7100000000000000000000000000000000000000000000000000000000600052602260045260246000fd5b60006002820490506001821680611b3557607f821691505b60208210811415611b4957611b48611aee565b5b50919050565b7f4e487b7100000000000000000000000000000000000000000000000000000000600052601160045260246000fd5b6000611b8982611338565b91507fffffffffffffffffffffffffffffffffffffffffffffffffffffffffffffffff821415611bbc57611bbb611b4f565b5b600182019050919050565b6000611bd282611338565b9150611bdd83611338565b9250827fffffffffffffffffffffffffffffffffffffffffffffffffffffffffffffffff03821115611c1257611c11611b4f565b5b828201905092915050565b7f4e487b7100000000000000000000000000000000000000000000000000000000600052603260045260246000fd5b7f616c726561647920766f74656420616761696e73742070726f706f7365000000600082015250565b6000611c82601d836113c1565b9150611c8d82611c4c565b602082019050919050565b60006020820190508181036000830152611cb181611c75565b9050919050565b6000611cc382611338565b91506000821415611cd757611cd6611b4f565b5b600182039050919050565b7f616c726561647920766f74656420666f722070726f706f736500000000000000600082015250565b6000611d186019836113c1565b9150611d2382611ce2565b602082019050919050565b60006020820190508181036000830152611d4781611d0b565b9050919050565b6000611d5982611338565b9150611d6483611338565b9250817fffffffffffffffffffffffffffffffffffffffffffffffffffffffffffffffff0483118215151615611d9d57611d9c611b4f565b5b828202905092915050565b7f4e487b7100000000000000000000000000000000000000000000000000000000600052601260045260246000fd5b6000611de282611338565b9150611ded83611338565b925082611dfd57611dfc611da8565b5b828204905092915050565b7f666f72566f746573206d7573742062652067726561746572207468616e20616760008201527f61696e7374566f74657300000000000000000000000000000000000000000000602082015250565b6000611e64602a836113c1565b9150611e6f82611e08565b604082019050919050565b60006020820190508181036000830152611e9381611e57565b9050919050565b6000611ea582611338565b9150611eb083611338565b925082821015611ec357611ec2611b4f565b5b82820390509291505056fea2646970667358221220901b301c7d9261b7f4709ddc6f2af4159d9d155dcac4b8bb01c6d4b9fb5f28d364736f6c63430008090033",
  "linkReferences": {},
  "deployedLinkReferences": {}
}